:1000000000000420750300005D0300005F03000092
:1000100061030000630300006503000000000000AE
:100020000000000000000000000000006703000066
:1000300069030000000000006B0300006D03000076
:1000400099D40000B98B0000552800006F03000010
:100050006F0300006F0300006D2500006F030000B8
:10006000C1420000D9420000F142000035470000C3
:100070006F0300006F0300006F0300006F030000B8
:100080006F0300009DDE00006F0300006F0300009F
:100090006F0300006F0300006F0300006F03000098
:1000A0006F0300006F0300000943000021430000BC
:1000B0006F0300006F03000000000000000000005C
:1000C0006F0300006F0300006F0300006F03000068
:1000D000F1CF00006F0300006F0300006F0300000A
:1000E000D13C00006F0300006F030000000000001F
:1000F000000000006F030000000000006F0300001C
:1001000000000000000000000000000000000000EF
:1001100000000000000000000000000000000000DF
:1001200000000000000000000000000000000000CF
:1001300000000000000000000000000000000000BF
:1001400000000000000000000000000000000000AF
:10015000000000000000000000000000000000009F
:10016000000000000000000000000000000000008F
:10017000000000000000000000000000000000007F
:10018000000000000000000000000000000000006F
:10019000000000000000000000000000000000005F
:1001A000000000000000000000000000000000004F
:1001B000000000000000000000000000000000003F
:1001C000000000000000000000000000000000002F
:1001D000000000000000000000000000000000001F
:1001E000000000000000000000000000000000000F
:1001F00000000000000000000000000000000000FF
:10020000354936480A1A02D0072291438D463449AF
:1002100034480A1A06D00722914381F30988022242
:1002200082F3148830483149314A00F044F83148AB
:100230003149324A00F03FF831483249324A00F041
:100240003AF832483249334A00F035F832483349F7
:10025000334A00F030F833483349344A00F02BF881
:1002600033483449344A00F026F8344834490022EF
:1002700000F02CF833483449002200F027F83348C6
:100280003349091A082902DB002202604160314A21
:1002900090471F481F49884205D00268043003B4C4
:1002A000904703BCF7E700208646EC46002000217B
:1002B000294A9047FEE7884207D0521A05D00378B2
:1002C00001300B700131013AF9D17047884202D0F8
:1002D00002700130FAE770470000042000E00320BC
:1002E0000000042000000420281701000000002066
:1002F000BC000020D0030000D003000038F1000053
:100300002817010000000020000000209CF10000E0
:100310009CF100009CF100009CF100009CF10000A9
:100320009CF100009CF100009CF1000026170100E8
:10033000E4170100BC000020BC000020BC0000202D
:100340002016002020160020201600202016002055
:10035000203600209D03000001500000FEE7FEE76C
:10036000FEE7FEE7FEE7FEE7FEE7FEE7FEE7FEE765
:1003700000F002B8FFF7FCBF0F484FF007018843B9
:1003800085460E4880470E48016841F470010160BF
:10039000BFF34F8FBFF36F8FFFF732BF09480A4992
:1003A0000A4A884207D0521A05D0037801300B70F0
:1003B0000131013AF9D170470000042009570000CB
:1003C00088ED00E09CF1000000000020000000200B
:1003D000FEE7000000B585B00190019B002B0AD01C
:1003E000074B43F001030393019B9B010293039B83
:1003F0000298984700E000BF05B05DF804FB00BF1D
:10040000B0F1000000B583B00190019B002B0AD031
:100410004FF47A70FFF7DEFF019B013B0193019BD4
:10042000002BF5D100E000BF03B05DF804FB08B578
:1004300005F044F900BF08BD00B589B003900291F2
:100440000192019B002B33D00023079303230693D3
:10045000029A079B1344019A1946002005F0DEF822
:100460000590079A059B13440793019A059BD31A9D
:100470000193059B002B13D10F4B1B7883F00103D5
:10048000DBB2002B13D10120FFF7BCFF069B013B21
:100490000693069B002B03D1074B00221A7007E03E
:1004A000054B01221A70019B002BD1D100E000BF47
:1004B00000BF09B05DF804FBBC00002000B585B0AA
:1004C00003900291054B00934023054A029903983B
:1004D00000F012F800BF05B05DF804FB390400001D
:1004E000C000002082B0019000BF02B0704782B00F
:1004F000019000BF02B0704700B5A1B00590049113
:100500000392029304980EF0DFFA039B1593029B6B
:1005100016930023179300238DF86030002319935E
:10052000229B1A9300231F930FA91F9B0822049854
:100530000EF0A4FB08231F93119B1293BDF84030CB
:10054000ADF84C30BDF84230ADF84E3000238DF898
:1005500051309DF83C3003F00303DBB2012B26D170
:100560000F9BC3F395231C939DF83C30C3F3C20348
:10057000DBB28DF85030BDF83C30C3F38313DBB2EF
:100580001B931B9B9A0009A91F9B04980EF076FBF6
:100590001B9B9B001F9A13441F9312AA09A915AB1A
:1005A000009313461B9A1C9800F0C8FE2FE09DF89C
:1005B0003C3003F00303DBB2022B28D1BDF83E3000
:1005C000C3F389139BB21E939DF83C30C3F3C2035F
:1005D000DBB28DF850301E9B082B28BF08231D93DB
:1005E00007A91F9B1D9A04980EF048FB1F9A1D9B9C
:1005F00013441F931E9A1D9BD31A1E9315AB12AA68
:1006000007A81D9900F03CFF1E9B002BE3D1049826
:100610000EF069FA00BF21B05DF804FB82B00190D2
:10062000019BDB6801225A7100BF02B070470000D5
:1006300000B583B04FF0FF330193FFF7F8FE0421BC
:10064000084800F095FD0190019B002B03DA064954
:1006500041200DF031FC0348FFF7E0FF00BF03B07D
:100660005DF804FB78F10000C8F1000000B583B02C
:1006700001900091019B1B681B68009901989847A5
:1006800000BF03B05DF804FB00B583B00190019B8F
:100690001B685B680198984700BF03B05DF804FBD6
:1006A00000B583B00190019B1B689B680198984737
:1006B00000BF03B05DF804FB82B001900B468DF8DB
:1006C0000330019BDB689DF803201A7100BF02B064
:1006D000704782B00190019BDB681B79184602B01D
:1006E000704782B00190019BDB6801225A7100BF04
:1006F00002B0704782B00190019BDB685B791846BD
:1007000002B0704700B585B001900091154BFF22F3
:100710009A60144B00221A60124B00225A60114B4F
:100720000022C3F818240F4B0022C3F814240D4BE9
:10073000002283F820240C480EF02AF90390039B32
:10074000002B01D0039B08E008480EF0B7FA084AD6
:10075000084BD31ADB0802930023184605B05DF856
:1007600004FB00BF6802002088F100003CF200009A
:1007700078F1000038F10000024A034BD31ADB087D
:100780001846704778F1000038F1000000B587B0D6
:1007900001900B468DF803309DF80330002B1FD0DD
:1007A000FFF7EAFF04900023059313E0059B9B00ED
:1007B0000E4A13440393039B1B881A46019B1B6834
:1007C0009A4204D1019B059A1A60002309E0059B17
:1007D00001330593059A049B9A42E7D3052300E071
:1007E0000023184607B05DF804FB00BF000000209E
:1007F00000B585B001900B468DF803309DF80320BD
:1008000001AB11461846FFF7C1FF0346002B07D185
:10081000019BDB00054A13440393039B1B6800E024
:100820000023184605B05DF804FB00BF38F1000056
:1008300084B001900B468DF80330019BDB00174A12
:10084000134402939DF80330013B032B1CD801A2F3
:1008500052F823F0650800006D08000075080000DC
:100860007F08000002238DF80F3011E004238DF87B
:100870000F300DE0029B1B798DF80F3008E0029BD2
:100880005B798DF80F3003E000238DF80F3000BF47
:100890009DF80F30184604B0704700BF38F10000D3
:1008A00084B00190009100238DF80F30019B1B78DC
:1008B00003F00403DBB2002B24D0019B1B78C3F3AD
:1008C0000103DBB2012B02D0022B0CD017E0009BFE
:1008D0001B68019A1288C2F38312D2B213449A1C85
:1008E000009B1A600BE0009B1B68019A5288C2F3C0
:1008F000891292B213449A1C009B1A6000BF012314
:100900008DF80F309DF80F30184604B07047000086
:1009100000B58BB00023ADF826303E480DF05AFBF1
:100920003D480DF057FB3D4B5B6804933B4B9B6888
:100930000693049A069B134002339B00374A1344E4
:100940000433089304AB19460898FFF7A9FF034640
:10095000002B09D0049A069B134002339B002F4AB8
:10096000134404330893EDE700BF0023079311E01D
:10097000049B5A1C0492069A1340079A920001A9FC
:100980000A44264902339B000B445B681360079BB3
:1009900001330793079B012BEAD99DF80430C3F379
:1009A0000103DBB2012B10D0022B1CD1BDF80A30A1
:1009B000ADF82630BDF80630C3F389139BB203337C
:1009C0009A08049B1344049313E0BDF80A30ADF871
:1009D0002630BDF80430C3F38313DBB21A46049B00
:1009E0001344049305E00E494FF4BF700DF064FA10
:1009F00000BF09480DF0FAFA0590059B002B02D0C4
:100A0000049B064A5360BDF8263018460BB05DF8CB
:100A100004FB00BF800600207C0600206802002046
:100A20004CF2000000B585B0002107480DF05BFADC
:100A30000390039B0293029B83F310030193019B9A
:100A4000184605B05DF804FB8406002000B589B0A7
:100A50000390029101920093039B1B0C0793FFF7F5
:100A6000E1FF0690FFF788FE0246079B934204D3FE
:100A7000214940F2A3100DF01FFA069B1904009BB8
:100A80005A1C0A9B1340079A0A431C4902339B00D5
:100A90000B445A60009A0A9B134002339B00174A8A
:100AA000134404330593039B03F00703D9B2059A5B
:100AB000137861F3C5031370019B03F00F03D9B2E0
:100AC000059A138861F389131380029BC3F3150100
:100AD000059A136861F39F231360059A1378012127
:100AE00061F301031370059A13786FF38203137097
:100AF00000BF09B05DF804FB4CF200006802002062
:100B000000B58BB00390029113468DF80730039B1C
:100B10000233089301238DF81F3000200DF076F981
:100B20003E4B1A68029B1A603C4B9A683B4B5968D3
:100B30003A4B1B68CB1A13440133099314E001218B
:100B400037480DF017FAFFF7E3FE05900599344892
:100B50000DF010FA314B9A68304B59682F4B1B68D7
:100B6000CB1A134401330993089A099B9A42E6D899
:100B70009DF81F30002B48D0002304939DF80730C8
:100B8000002B17D09DF81030012262F301038DF87D
:100B900010309DF8103043F004038DF81030039BA3
:100BA00003F00F03DAB2BDF8103062F38913ADF829
:100BB000103016E09DF81030022262F301038DF828
:100BC00010309DF8103043F004038DF81030039B73
:100BD000C3F309039AB2BDF8123062F38F13ADF874
:100BE00012300E4B1A680D4B9B68134002339B006A
:100BF0000A4A134404330693049A069B1A60074B6F
:100C00001A68089B1344054A136000200DF012F97E
:100C10009DF81F3018460BB05DF804FB68020020F9
:100C20008406002000B58BB00590049103920293D6
:100C30001F4B9B68079306AB012219460298FFF7EA
:100C40005FFF0346002B24D0069B02330993002349
:100C5000089311E0089B9B00039A1A44099B591CB6
:100C6000099107990B401268114902339B000B440C
:100C70005A60089B01330893089A029B9A42E9D371
:100C8000069A079B00931346029A04990598FFF76A
:100C9000DDFE074B93F82034002B05D000BF00F099
:100CA00065F80346002BFAD100BF0BB05DF804FBDA
:100CB0006802002000B583B001900091002300225B
:100CC00000990198FFF7AEFF00BF03B05DF804FB89
:100CD00000B587B0039002910192019B059305AA8C
:100CE000012302990398FFF79DFF00BF07B05DF84D
:100CF00004FB00B587B00390029101920093019B21
:100D00000493009B059304AA022302990398FFF71A
:100D100089FF00BF07B05DF804FB00B58BB00390FE
:100D2000029101920093019B0593009B06930C9BFB
:100D300007930D9B08930E9B099305AA052302991F
:100D40000398FFF76FFF00BF0BB05DF804FB0000D6
:100D5000054B5A68044B1B689A420CBF01230023C1
:100D6000DBB21846704700BF6802002000B599B09A
:100D7000FFF7EEFF0346002B01D00023B7E19B4BAA
:100D80000022C3F81824BFF34F8F00BF974B5B6856
:100D90000493964B9B681093049A109B1340023364
:100DA0009B00924A134404331193002317930023AA
:100DB000169300230F9304AB19461198FFF770FDAB
:100DC0000346002B19D0894BD3F81834002B14D1CB
:100DD000864B1A68049B9A4205D8844B1B68834A49
:100DE0005360002383E1049A109B134002339B005D
:100DF0007E4A134404331193DDE70023159311E079
:100E0000049B5A1C0492109A1340159A920001A94F
:100E10000A44764902339B000B445B681360159BC0
:100E200001331593159B012BEAD99DF8043003F08B
:100E30000303DBB2022B40F09C80BDF80630C3F305
:100E400089139BB20D93BDF80630C3F389139BB28F
:100E5000502B28BF50239BB20C930C9BC3F3090368
:100E60009AB2BDF8063062F38F13ADF806300C9BD2
:100E700008330B939DF80430C3F3C203DBB20F9326
:100E80000B995B480DF08FFD1790179B002B00F01E
:100E9000D18017980DF018FE01A9169B082217980B
:100EA0000DF0CEFE169B08331693049BDA43109B7D
:100EB000134001339B000A930C9A0A9B9A4242D931
:100EC0000A9B002B08D0049A109B134002339B000E
:100ED000464A1344043300E0464B08930A9B002B18
:100EE00002D00A9BDBB201E00C9BDBB28DF81F3015
:100EF0000A9B002B01D03F4B00E0002306930A9B86
:100F0000002B06D00C9BDAB20A9BDBB2D31ADBB201
:100F100000E000238DF817309DF81F20169B0899DC
:100F200017980DF08DFE9DF81F30169A13441693F6
:100F3000069B002B16D09DF81720169B0699179834
:100F40000DF07EFE0EE0049A109B134002339B00CE
:100F5000264A134404330993169B0C9A099917984F
:100F60000DF06EFE0D9B03339A08049B134404930B
:100F700060E09DF8043003F00303DBB2012B59D18C
:100F8000BDF80430C3F38313DBB2062B28BF06235E
:100F9000DAB2BDF8043062F38913ADF80430BDF85D
:100FA0000430C3F38313DBB202330E939DF8043095
:100FB000C3F3C203DBB20F930E9B9B0019460C4890
:100FC0000DF0F1FC1790179B002B33D017980DF004
:100FD0007BFD01A9169B082217980DF031FE169B88
:100FE00008331693002315931BE000BF680200200E
:100FF00088F1000074020020049B5A1C0492109A8D
:10100000134002339B003C4A1344191D169B0422D3
:1010100017980DF015FE169B04331693159B01339C
:101020001593BDF80430C3F38313DBB21A46159B46
:101030009342E1D3179B002B39D02F4BD3F81034B8
:1010400014932D4BD3F81834002B1BD017980DF0A8
:101050004AFD46E000238DF84F301498FFF74AFB15
:101060000346002B02D001238DF84F309DF84F30FE
:10107000002B03D017991498FFF7F8FA149BDB683C
:101080001B681493149B002BE4D117980DF02BFDD3
:1010900000200CF0BBFE184BD3F81834002B02D103
:1010A000049B154A536000200CF0C4FE19E0124B5B
:1010B000D3F81034129306E01298FFF7F1FA129B5E
:1010C000DB681B681293129B002BF5D10B4A0C4B6B
:1010D000D31ADB081B0443F002030A491846FFF742
:1010E000E9FDFFF735FE034683F00103DBB2184646
:1010F00019B05DF804FB00BF6802002068F1000031
:1011000038F10000B8F2000000B585B00023039369
:1011100023E0164BD3F81034029301238DF80730E7
:101120000FE00298FFF7D5FA03461A46039B934255
:1011300003D100238DF8073006E0029BDB681B68B3
:101140000293029B002BECD19DF80730002B01D0BD
:10115000039B07E0039B01330393039B092BD8DD1B
:101160004FF0FF33184605B05DF804FB680200201D
:1011700000B585B001900B468DF80330FFF7C4FF32
:101180000390039BB3F1FF3F01D1039B22E0039B3C
:10119000DBB219460198FFF78FFA104BD3F81034E1
:1011A000002B08D10D4A019BC2F81034019BDB686B
:1011B00000221A600DE0094BD3F81034DA68019B65
:1011C000DB6812681A60054BD3F81034DB68019AAB
:1011D0001A60039B184605B05DF804FB6802002006
:1011E00000B583B00D4BD3F8103401930B4B0122A3
:1011F00083F8202409E00198FFF773FA0198FFF7BC
:1012000043FA019BDB681B680193019B002BF2D121
:1012100000BF00BF03B05DF804FB00BF6802002000
:1012200082B00190009100BF02B0704710B584B049
:1012300003900291039BDB88002B0AD0039BDB8881
:101240001A461F4B009313461E4A1F4902980CF082
:10125000FBFF039B1B7A052B2ED0039B5B7A002B95
:1012600012D0039B9B881A46039B1B7A1946104693
:10127000FFF7DEFA03461A46144B53F822301A469B
:10128000134902980CF0E0FF039B1B681946029873
:10129000FFF7C6FF039B1B7A1A460E4B53F82240FA
:1012A000039B9B8800211846FFF7A2FA03462246BB
:1012B000094902980CF0C8FF00BF04B010BD00BF80
:1012C000ECF20000FCF2000034F300001C000020EF
:1012D0004CF300000800002050F3000000B585B07A
:1012E0000390029113468DF80730039B1B7A052B60
:1012F0000FD0039B5B7A002B06D00D4B1B681A4660
:101300000C4902980CF0A0FF0B4902980CF09CFFCE
:1013100007E09DF80730002B03D0074902980CF036
:1013200093FF02980CF06EFF00BF05B05DF804FB60
:101330001C0000204CF300005CF3000030B58BB0C3
:1013400007900691059204930E9B1B7B8DF8273026
:101350000E9B00221A730E990498FFF767FF059BF6
:10136000062B7FD801A252F823F000BF891300009A
:1013700093130000A3130000B7130000D51300005F
:10138000FD1300002D14000007990E980CF05CFF6F
:1013900069E0069B1B681A4607990E980CF054FFEB
:1013A00061E0069B1A68069B04331B6807990E9838
:1013B0000CF04AFF57E0069B1A68069B0433196835
:1013C000069B08331B6800930B4607990E980CF098
:1013D0003BFF48E0069B1968069B04331868069B90
:1013E00008331B68069A0C32126801920093034678
:1013F0000A4607990E980CF027FF34E0069B186800
:10140000069B04331C68069B08331B68069A0C3243
:1014100012680699103109680291019200932346DF
:10142000024607990E980CF00FFF1CE0069B1C6803
:10143000069B04331D68069B08331B68069A0C3212
:1014400012680699103109680698143000680390F4
:101450000291019200932B46224607990E980CF0B8
:10146000F3FE00E000BF00220E990498FFF736FF5C
:101470000E9B9DF827201A7300BF0BB030BD00BF34
:1014800000B587B00390029101920093029B082B54
:1014900060D8009B1B7B8DF81330009B00221A73D1
:1014A00000990198FFF7C2FE0023059314E0059A06
:1014B000029B9A4209D2039A059B13441B781A4651
:1014C000264900980CF0C0FE03E0254900980CF076
:1014D000BBFE059B01330593059B072BE7D92149EB
:1014E00000980CF0B1FE0023059326E0059A029BBC
:1014F0009A421BD2039A059B13441B788DF8123035
:101500009DF812307E2B0AD89DF8123018460DF047
:1015100027FD0346002B02D09DF8123000E02E2359
:101520001A46114900980CF08FFE03E00F4900980D
:101530000CF08AFE059B01330593059B072BD5D93B
:10154000012200990198FFF7C9FE009B9DF8132026
:101550001A7300E000BF07B05DF804FB60F3000001
:1015600068F300006CF3000070F3000074F30000F7
:1015700000B583B00190019B1B682F2B04D90B4948
:1015800040F2CD100CF098FC019B1B681F2B02D879
:101590004FF0A04306E0019B1B6803F01F02019B74
:1015A0001A60034B184603B05DF804FB78F30000A3
:1015B0000003005000B585B00190084611461A4658
:1015C00003468DF803300B468DF8023013468DF834
:1015D000013001AB1846FFF7CBFF03909DF80320C5
:1015E0009DF802305B001A439DF801309B001A43BE
:1015F0009DF818301B0242EA03019DF81C301B04C1
:10160000019A1943039B02F5E07243F8221000BFD0
:1016100005B05DF804FB00B585B00390002301938D
:10162000002300930023012201210398FFF7C2FF4A
:1016300000BF05B05DF804FB00B585B003900B4614
:101640008DF80B309DF80B300022019200220092A1
:10165000002200210398FFF7ADFF00BF05B05DF841
:1016600004FB00B585B0019001AB1846FFF780FF81
:101670000390019B012202FA03F31946039800F03C
:101680002AF800BF05B05DF804FB00B585B00190F5
:1016900001AB1846FFF76CFF0390019B012202FA91
:1016A00003F31946039800F020F800BF05B05DF879
:1016B00004FB00B583B001900091009B002B03D187
:1016C0000198FFF7E2FF02E00198FFF7CAFF00BFB1
:1016D00003B05DF804FB82B001900091019B009A79
:1016E000C3F8082500BF02B0704782B00190009196
:1016F000019B009AC3F80C2500BF02B070470000A0
:1017000000B583B00190019B032B03D90749412009
:101710000CF0D2FB064A019B13441B7800211846AB
:10172000FFF7C7FF00BF03B05DF804FBACF3000098
:1017300004F4000000B583B00190019B032B03D992
:10174000074947200CF0B8FB064A019B13441B785D
:1017500001211846FFF7ADFF00BF03B05DF804FBA1
:10176000ACF3000004F4000000B583B00023019343
:1017700005E00198FFF7DEFF019B01330193019B18
:10178000032BF6D900BF00BF03B05DF804FB0000D7
:1017900000B583B00023019309E0094A019B13447B
:1017A0001B781846FFF737FF019B01330193019B1C
:1017B000032BF2D9FFF7D8FF00BF03B05DF804FB9D
:1017C00004F4000000B583B0002301930AE0094A45
:1017D000019B13441B7803211846FFF72DFF019B43
:1017E00001330193019B032BF1D900BF00BF03B06C
:1017F0005DF804FB08F4000000B583B00190019B84
:1018000003F00103002B01D0FFF7C2FF019B03F09F
:101810000203002B01D0FFF7D5FF00BF03B05DF836
:1018200004FB000000B589B001900091009B079374
:10183000019B1B788DF80C30019B5B680493019B26
:101840009B68DBB28DF81430019BDB680693074A76
:10185000079B52F823300649079A51F8221003AA31
:101860001046984700BF09B05DF804FB8C060020C5
:101870009406002000B589B001900091009B079369
:10188000019B1B788DF80C30019B5B680493019BD6
:101890009B68DBB28DF81430019BDB680693074A26
:1018A000079B52F823300649079A51F8221003AAE1
:1018B0001046984700BF09B05DF804FB8C06002075
:1018C0009406002030B58FB0039002910192039BE3
:1018D0001B780C932C490C9B019A41F82320029B06
:1018E0001A692A490C9B41F823200C9B012B07D134
:1018F000029B5B7F002B03D1254976200CF0DCFA9C
:10190000029B5B7F1946234A0C9B13440A461A70BC
:10191000029B04AC1D460FCD0FC495E80F0084E870
:101920000F000C9B089300230D93039B1B781A4612
:10193000184B9B5C002B0DD0039B181D019B002BAB
:1019400001D0154A00E0002204AB194601F076FFF1
:101950000D9014E0039B1B781A460E4B9B5C002BEA
:101960000DD1039B03F10C00019B002B01D00B4A0E
:1019700000E0002204AB194601F030FA0D900D9BF7
:1019800018460FB030BD00BF8C0600209406002022
:101990000CF400009C0600202518000075180000BB
:1019A00082B003468DF807309DF8073003F01F0220
:1019B00005499DF907305B09012000FA02F241F860
:1019C000232000BF02B0704700E100E082B0034670
:1019D00000918DF807309DF90730002B0CDA009B41
:1019E000DAB20C499DF8073003F00F03043B5201B3
:1019F000D2B20B441A7609E0009BDAB206499DF98F
:101A000007305201D2B20B4483F8002300BF02B06A
:101A1000704700BF00ED00E000E100E000B583B0DA
:101A200003460A468DF8073013468DF806309DF8B8
:101A30000630072B03D908496B200CF03DFA9DF8BE
:101A400006209DF9073011461846FFF7BFFF00BF7B
:101A500003B05DF804FB00BF70F4000000B583B074
:101A600003468DF807309DF907301846FFF798FFB9
:101A700000BF03B05DF804FB00B583B00346ADF8CA
:101A80000630BDF80630184600F026F803461B68FD
:101A9000012B0CBF01230023DBB2184603B05DF815
:101AA00004FB00B585B00346ADF80630BDF806303E
:101AB000184600F011F803461A4600231360BDF8DB
:101AC0000630184600F008F803461B680393039B92
:101AD00000BF05B05DF804FB82B00346ADF80630E8
:101AE000BDF8063003F1804303F5C043184602B049
:101AF0007047000082B00190034A019BC2F8043392
:101B000000BF02B0704700BF0060004082B001908B
:101B1000034BD3F80423019B1340184602B07047CF
:101B20000060004082B00190084A019B03F5A27357
:101B300052F82330054943F00102019B03F5A273DB
:101B400041F8232000BF02B0704700BF0060004092
:101B500084B00390029113468DF80730144A039B1A
:101B600003F5A27352F82330114923F44F3323F4C1
:101B70004073039A02F5A27241F822300C4A039B8B
:101B800003F5A27352F82320029B1B0203F47C513D
:101B90009DF807301B0403F440330B4304491A43F8
:101BA000039B03F5A27341F8232000BF04B07047E4
:101BB0000060004082B00190054A019B03F5A273CA
:101BC00052F823301B0A03F03F03184602B0704757
:101BD0000060004082B00190064A019B03F5A273A9
:101BE00052F823301B0C03F00303DBB2184602B09B
:101BF000704700BF0060004084B00390029111461E
:101C00001A460B468DF8073013468DF80630184AF1
:101C1000039B03F5A27352F82330154923F499135B
:101C200023F4F853039A02F5A27241F82230104AC5
:101C3000039B03F5A27352F82320029B1B0203F4BB
:101C40007C519DF807301B0403F4403319439DF881
:101C500006301B0503F480130B4305491A43039B0D
:101C600003F5A27341F8232000BF04B0704700BF02
:101C70000060004000B583B00190019B1B682F2BD2
:101C800004D90B4940F2CD100CF016F9019B1B68EA
:101C90001F2B02D84FF0A04306E0019B1B6803F006
:101CA0001F02019B1A60034B184603B05DF804FB4A
:101CB000A4F400000003005000B585B00190084670
:101CC00011461A4603468DF803300B468DF8023054
:101CD00013468DF8013001AB1846FFF7CBFF039098
:101CE0009DF803209DF802305B001A439DF80130F7
:101CF0009B001A439DF818301B0242EA03019DF82D
:101D00001C301B04019A1943039B02F5E07243F84F
:101D1000221000BF05B05DF804FB00B585B003904C
:101D20000023019300230093002301220121039843
:101D3000FFF7C2FF00BF05B05DF804FB00B585B03A
:101D400003900B468DF80B309DF80B30002201926A
:101D500000220092002200210398FFF7ADFF00BF90
:101D600005B05DF804FB00B585B0019001AB1846E5
:101D7000FFF780FF0390019A039B02F5E07253F88E
:101D8000223023F002030293019A039B02F5E072D2
:101D9000029943F8221000BF05B05DF804FB00B5BE
:101DA00085B001900B468DF8033001AB1846FFF764
:101DB00061FF0390019A039B02F5E07253F8223011
:101DC000019A23F44031039B02F5E07243F822109C
:101DD000019A039B02F5E07253F822309DF803202C
:101DE00012041146019A1943039B02F5E07243F86D
:101DF000221000BF05B05DF804FB00B585B001906E
:101E000001AB1846FFF736FF0390019B012202FA4F
:101E100003F31946039800F04BF800BF05B05DF8D6
:101E200004FB00B585B0019001AB1846FFF722FF17
:101E30000390019B012202FA03F31946039800F074
:101E400041F800BF05B05DF804FB00B585B0019016
:101E500001AB1846FFF70EFF0390039800F020F83F
:101E60000246019B22FA03F303F00103184605B072
:101E70005DF804FB00B585B0019001AB1846FFF793
:101E8000F9FE0390019A039B02F5E07253F82230A9
:101E90001B0C03F00303DBB2184605B05DF804FB2E
:101EA00082B00190019BD3F81035184602B07047FC
:101EB00082B001900091019B009AC3F8082500BFF1
:101EC00002B0704782B001900091019B009AC3F864
:101ED0000C2500BF02B0704700B589B00390029195
:101EE0000192184A05AB92E8030083E80300039AC5
:101EF000029B1344022B04D9134940F2FD200BF03E
:101F0000DBFF039B079311E0079B9B0008AA134488
:101F100053F80C3C1846FFF7C3FF0246019B1A60BA
:101F2000019B04330193079B01330793039A029BA0
:101F30001344079A9A42E7D300BF00BF09B05DF887
:101F400004FB00BFD8F40000A4F4000084B00190AA
:101F50000091009B0393019BDB080293019B03F01C
:101F6000070301930122019B02FA03F30399029AEA
:101F70000A4412781340184604B0704784B00190A8
:101F80000091009B0393019BDB080293019B03F0EC
:101F900007030193039A029B13441B785AB2012151
:101FA000019B01FA03F35BB2134359B2039A029BFC
:101FB0001344CAB21A7000BF04B0704782B00190D7
:101FC000074A019B1344303393F90030B3F1FF3FCC
:101FD00014BF01230023DBB2184602B0704700BFD4
:101FE000A006002082B001900C4A019B13443033BC
:101FF00093F90030002B09DB084A019B134430336E
:1020000093F90030072B01DC012300E0002303F0EB
:102010000103DBB2184602B0704700BFA0060020E3
:1020200082B00190064A019B1344303393F900308B
:10203000072BCCBF01230023DBB2184602B0704748
:10204000A006002082B00190064A019B1344303361
:1020500093F90030DB43DBB2DB09DBB2184602B098
:10206000704700BFA006002084B003900291019247
:102070008DF80330029B59B20E4A039B1344303350
:102080000A461A700B49029B019A41F823209DF8D9
:10209000033083F00103DBB2002B08D0029B083B26
:1020A000039A51B2034A13440A4683F8602000BFE2
:1020B00004B07047A006002082B00190044A019B42
:1020C00013443033FE221A7000BF02B0704700BFC5
:1020D000A006002082B00190044A019B13443033D3
:1020E000FF221A7000BF02B0704700BFA006002098
:1020F00000B583B0019004490198FFF73FFF00BF8E
:1021000003B05DF804FB00BF0407002082B001901B
:10211000044A019B1344303393F90030184602B04F
:10212000704700BFA006002082B00190034A019BC7
:1021300052F82330184602B0704700BFA0060020B6
:1021400000B589B00390029113468DF80730FF2344
:102150008DF81F309DF80730002B01D0002300E0E0
:10216000082305939DF80730002B01D0082300E0D9
:102170000C230493059B069314E00F4A069B52F828
:102180002330B3F1FF3F0AD19DF80730029A069938
:102190000398FFF769FF069B8DF81F3006E0069B4A
:1021A00001330693069A049B9A42E6D39DF91F30A9
:1021B000184609B05DF804FBA006002082B0034673
:1021C0008DF807309DF80730094A4FF0FF3142F88B
:1021D00023109DF80730072B07D99DF80730083BDF
:1021E000034A1344FF2283F8602000BF02B0704707
:1021F000A006002000B583B0254B93F86A30002B71
:1022000003D008230193019B3EE000238DF80330A7
:1022100009E09DF803301846FFF75CFF9DF8033096
:1022200001338DF803309DF803302F2BF1D90023B3
:102230008DF8033009E09DF803301846FFF7BEFF24
:102240009DF8033001338DF803309DF803300B2BDC
:10225000F1D9062200210F480CF0E9FE06210620E4
:10226000FFF7DCFB0620FFF7F9FB4FF4BE70FFF72A
:1022700018FC4FF00040FFF73DFC054B012283F8AE
:102280006A2000230193019B184603B05DF804FB0C
:10229000A00600200407002000B585B00190009141
:1022A000019B2F2B04D92E494FF498700BF004FE9C
:1022B0002C4B93F86A30012B04D0294940F231109D
:1022C0000BF0FAFD009B002B04D125494FF49970C7
:1022D0000BF0F2FD002303930198FFF76FFE034616
:1022E000002B02D00823039334E0009B9B78002B43
:1022F00019D0012200210198FFF722FF03468DF833
:102300000B309DF90B30B3F1FF3F09D09DF90B0065
:10231000009B1A78009B5B780199FFF76DFC05E044
:102320000423039302E00198FFF7C6FE039B002BF2
:1023300010D1009B5B78012B03D10198FFF75DFD65
:1023400002E00198FFF76DFD0198FFF7E6FC0198A8
:10235000FFF7CEFE039B184605B05DF804FB00BFF7
:10236000E8F40000A006002000B587B003900291B9
:102370000192039B2F2B04D9364940F207200BF022
:102380009BFD002305930398FFF75CFE0346002B9B
:1023900002D00823059357E0029B9B78C3F34003C8
:1023A000DBB21A4601990398FFF7CAFE03468DF87F
:1023B00013309DF91330B3F1FF3F43D0029B9B785C
:1023C000C3F38003DBB283F00103DBB2002B13D035
:1023D000029B9B7803F00103DBB2002B03D0039830
:1023E000FFF7C1FC05E0029B5B7819460398FFF7F5
:1023F000A5FC0398FFF77CFE029B9B7803F0020389
:10240000DBB2002B08D09DF91300029B1B781A4603
:102410000399FFF79DFB17E09DF91330083B0E4A27
:10242000134493F96010029B1B789B015AB29DF9EB
:102430001330083B0A4351B2074A13440A4683F853
:10244000602001E004230593059B184607B05DF862
:1024500004FB00BFE8F40000A006002000B589B02E
:1024600001900B468DF80330019B2F2B04D93D4979
:1024700040F237200BF020FD0198FFF7E3FD034603
:10248000002B04D137494FF40E700BF015FD019865
:10249000FFF7C6FD0346002B2FD00198FFF736FE4D
:1024A0000346083B304A134493F960308DF80F30EF
:1024B0009DF80F309B098DF80E309DF80E30032BE0
:1024C0000BD10198FFF7C1FC0346002B01D0032379
:1024D00000E002238DF81F3008E09DF80E30012B3C
:1024E00001D1022300E003238DF81F309DF81F3037
:1024F00019460198FFF753FC30E00198FFF772FD91
:102500000346002B2AD00198FFF700FE03460693EE
:10251000069B9BB240339BB29B00ADF81630069BE6
:102520001846FFF7FFFABDF816301846FFF7B9FA5C
:102530009DF80330002B11D00198FFF7E7FD03460B
:102540001846FFF7F1FD0490049B002B06D00122F2
:10255000069B02FA03F31846FFF7CCFA00BF09B056
:102560005DF804FBE8F40000A006002000B599B077
:102570000023149306AB00221A605A604FF4807354
:10258000ADF84A30012316930023139321E0BDF8E0
:102590004A301846FFF770FA0346002B0ED0169803
:1025A000FFF7B4FA0346002B08D0BDF84A301846AE
:1025B000FFF777FA149A169B13431493169B5B004C
:1025C0001693BDF84A300433ADF84A30139B0133FB
:1025D0001393139B072BDAD94FF4BE70FFF74CFA15
:1025E0000346002B0DD04FF4BE70FFF75AFA149B30
:1025F00043F00043149306AB1A4602210020FFF774
:102600006BFC149BDBB2002B29D001231693002313
:10261000139321E0169A149B1340002B16D01398A5
:10262000FFF7C8FA11901398FFF7D4FA03468DF814
:1026300043301398FFF778FD0F900F9B002B05D0C8
:102640009DF843200F9B114611989847169B5B00FD
:102650001693139B01331393139B072BDAD9149B07
:10266000002B80F2F08000238DF85F3004AB002255
:102670001A605A60002315930AE0159B9B0018AA64
:1026800013444FF0FF3243F8582C159B0133159338
:10269000159B012BF1D900238DF85F300023139394
:1026A00078E06B4A139B1344603393F900308DF844
:1026B0003B309DF83B3023F0C0030D93644A139BDD
:1026C0001344603393F90030B3F1FF3F5FD002ABA6
:1026D00019460D98FFF73AFC0346002B57D09DF89A
:1026E0003B309B098DF833300D98FFF70FFD034603
:1026F0001846FFF719FD0B900B9B002B03D19DF89B
:102700003330032B43D19DF83330032B04D104AB7A
:1027100019460D98FFF732FC0D98FFF7ABFB034607
:102720008DF82B3006AB19460D98FFF70FFC09907A
:10273000099B002B03D09DF82B30022B06D0099B60
:10274000002B24D19DF82B30032B20D19DF8333062
:10275000032B13D19DF82B30022B01D1032300E072
:1027600002238DF823309DF8233019460D98FFF78A
:1027700016FB9DF85F3001338DF85F300B9B002B0B
:1027800005D09DF833200B9B11460D989847139B5D
:1027900001331393139B032B83D99DF85F30002BD8
:1027A0004CD001238DF85E306B461A460221002082
:1027B000FFF792FB0023159314E0159B9B0018AACA
:1027C000134453F8602C159B9B0018A90B4453F835
:1027D000483C9A4203D000238DF85E3005E0159BFB
:1027E00001331593159B012BE7D99DF85E30002B23
:1027F00003D000238DF85F3020E0002315931AE00A
:10280000159B9B0018AA134453F8602C159B9B0042
:1028100018A90B4443F8482C159B9B0018AA134495
:1028200053F8502C159B9B0018A90B4443F8582CC7
:10283000159B01331593159B012BE1D99DF85F3052
:10284000002B7FF428AF00BF19B05DF804FB00BF78
:10285000A006002008B5064B1B68002B03D10549D4
:1028600051200BF029FB024B1B68984700BF08BDA5
:102870000C07002050F5000082B00190019B044A33
:10288000934201D1034B00E00023184602B0704789
:10289000002000400C07002000B587B00190009197
:1028A000019B002B03D1184977200BF005FB019801
:1028B000FFF7E2FF0590059B002B1ED000238DF84B
:1028C000133000200BF0A2FA059B1B79002B03D0DC
:1028D00001238DF8133005E0059B009A1A60059BD3
:1028E00001221A7100200BF0A5FA9DF81330002B7D
:1028F00003D011230393039B02E000230393039B64
:10290000184607B05DF804FB50F5000082B003469E
:102910008DF807309DF8073003F01F0205499DF937
:1029200007305B09012000FA02F241F8232000BFC2
:1029300002B0704700E100E082B0034600918DF8DC
:1029400007309DF90730002B0CDA009BDAB20C49F6
:102950009DF8073003F00F03043B5201D2B20B4441
:102960001A7609E0009BDAB206499DF90730520158
:10297000D2B20B4483F8002300BF02B0704700BFFF
:1029800000ED00E000E100E082B00190019B1B0B34
:102990005BB2184602B0704700B583B003460A46E2
:1029A0008DF8073013468DF806309DF80630072B5A
:1029B00003D908496B200BF07FFA9DF806209DF99A
:1029C000073011461846FFF7B7FF00BF03B05DF8A8
:1029D00004FB00BFB4F5000000B583B003468DF8DA
:1029E00007309DF907301846FFF790FF00BF03B08E
:1029F0005DF804FB84B001900B46ADF80230BDF8E1
:102A00000230019A134400221A60BDF80230019A84
:102A100013441B680393039B00BF04B0704782B04C
:102A200001900B46ADF80230BDF80230019A134414
:102A30001B68002B14BF01230023DBB2184602B031
:102A4000704782B001900091019B009AC3F8042363
:102A500000BF02B0704782B001900091019BD3F893
:102A60000423009B1340002B14BF01230023DBB27F
:102A7000184602B0704782B001900091019B009A05
:102A8000C3F8082300BF02B0704784B00190019BD7
:102A9000D3F880340393019B039AC3F88024039BEB
:102AA000184604B0704782B00190019B0422C3F81D
:102AB000002500BF02B0704784B0039002910192DC
:102AC000039B019AC3F81425039B029AC3F80C25B3
:102AD00000BF04B0704784B0039002910192039B41
:102AE000029AC3F80825039B019AC3F8102500BF7A
:102AF00004B0704782B00190019BD3F81835DBB267
:102B0000184602B0704782B001900B468DF8033032
:102B10009DF80320019BC3F81C2500BF02B070473D
:102B200082B001900B468DF803309DF80330019A76
:102B3000134401221A6000BF02B0704782B00190B6
:102B40000B468DF8033013468DF802309DF80320B4
:102B50009DF802301343DBB21A46019BC3F86C2583
:102B600000BF02B0704782B001900091019B009AB3
:102B7000C3F8242500BF02B07047000000B583B041
:102B80000190019B1B682F2B04D90B4940F2CD10FB
:102B90000BF092F9019B1B681F2B02D84FF0A0434A
:102BA00006E0019B1B6803F01F02019B1A60034BA8
:102BB000184603B05DF804FBE8F500000003005080
:102BC00000B585B00190084611461A4603468DF8B7
:102BD00003300B468DF8023013468DF8013001ABFF
:102BE0001846FFF7CBFF03909DF803209DF80230B5
:102BF0005B001A439DF801309B001A439DF8183082
:102C00001B0242EA03019DF81C301B04019A194380
:102C1000039B02F5E07243F8221000BF05B05DF897
:102C200004FB00B585B003900023019300230093BB
:102C30000023012201210398FFF7C2FF00BF05B066
:102C40005DF804FB00B585B003900B468DF80B30A2
:102C50009DF80B30002201920022009200220021F8
:102C60000398FFF7ADFF00BF05B05DF804FB00B5AA
:102C700085B0019001AB1846FFF780FF0390019BE0
:102C8000012202FA03F31946039800F004F800BF8A
:102C900005B05DF804FB82B001900091019B009AA1
:102CA000C3F8082500BF02B0704700B583B001909B
:102CB0000091009B1B68B3F1FF3F09D0009B1B688C
:102CC0001846FFF7D4FF009B1B681846FFF7A9FFC3
:102CD000009B5B68B3F1FF3F05D0009B5B68002160
:102CE0001846FFF7AFFF019B1A68009B9B691946C6
:102CF0001046FFF738FF019B1868009B597D009B29
:102D00001B7D1A46FFF71AFF019B1868009B196884
:102D1000009B5B681A46FFF7CFFE009B1B7D012BD3
:102D200022D1009B9B68B3F1FF3F05D0009B9B68BD
:102D300000211846FFF786FF009BDB68B3F1FF3FD9
:102D400009D0009BDB681846FFF791FF009BDB680A
:102D50001846FFF766FF019B1868009BD968009B27
:102D60009B681A46FFF7B7FE00BF03B05DF804FB8F
:102D700000B583B001900B468DF80330019B1B68B2
:102D80004FF48E711846FFF735FE019B1B684FF418
:102D9000A2711846FFF72EFE019B1B680E491846CC
:102DA000FFF74FFE019B1B681846FFF7EDFD03463A
:102DB0001A469DF8033019461046FFF7EDFD019BBA
:102DC0001B681846FFF7E0FD03461846FFF704FEB0
:102DD00000BF03B05DF804FB8000020000B587B0BF
:102DE000039002910192029B002B03D12D49AA204E
:102DF0000BF062F8039B1B791A462C2303FB02F3AA
:102E0000294A1344049300230593049B93F82A3022
:102E1000002B03D008230593059B3EE0039B1A6813
:102E2000039B1B791946214B53F821301946104654
:102E3000FFF732FD0346002B03D011230593059BBA
:102E40002BE002990398FFF730FF049B019A5A6028
:102E5000029B1A69049B1A60049B5B68002B05D0D7
:102E6000029B1B7F19460398FFF782FF039B1B6899
:102E70001846FFF718FE049B00229A61049B00226B
:102E8000DA61049B002283F82920049B00225A6106
:102E9000049B012283F82A20059B184607B05DF8A1
:102EA00004FB00BF24F600001407002088F6000091
:102EB00000B585B0019000914FF48E710198FFF735
:102EC00099FD009B9A68009B1B6A13441B788DF840
:102ED0000F30009B1B6A5A1C009B1A629DF80F3032
:102EE00019460198FFF70FFE00BF05B05DF804FB1F
:102EF00000B585B001900091009B5B69039316E0DB
:102F0000009B93F82830DBB2002B01D0002314E0A3
:102F10004FF48E710198FFF782FD034683F00103A1
:102F2000DBB2002BECD100990198FFF7C1FF009BA9
:102F30001B6A039A9A42EBD80123184605B05DF844
:102F400004FB000000B587B0039002910192039B3F
:102F50001B791A462C2303FB02F33C4A13440493C7
:102F6000049B93F82A30012B04D039494FF48C701C
:102F70000AF0A2FF029B002B04D1354940F2191040
:102F80000AF09AFF019B002B04D131494FF48D7058
:102F90000AF092FF039800F05DF80346002B03D07F
:102FA00011230593059B4CE0049B019A5A61049BF5
:102FB000029A9A60049B00221A62049B002283F802
:102FC000282000230593039B1B684FF48E7118463D
:102FD000FFF710FD039B1B6808211846FFF7A0FDB3
:102FE000039B1B6804991846FFF762FF049B5B680C
:102FF000002B25D1039B1B6804991846FFF778FF27
:10300000034683F00103DBB2002B02D00F230593AC
:1030100013E000BF039B1B684FF48E711846FFF747
:10302000FEFC034683F00103DBB2002BF2D1039BCD
:103030001B680C211846FFF773FD049B00225A61A0
:10304000059B184607B05DF804FB00BF140700207D
:1030500024F6000082B00190019B1B791946074AB3
:103060002C2303FB01F3134414331B68002B14BF00
:1030700001230023DBB2184602B07047140700207A
:1030800010B582B001900091009B9B69002B08D184
:103090004FF484710198FFF7ADFC0198FFF72AFD0A
:1030A00013E04FF484710198FFF7A4FC009BDA68E9
:1030B000009B5B6AD4180198FFF71CFD0346237040
:1030C000009B5B6A5A1C009B5A6202B010BD00B59F
:1030D00089B003900291019201238DF81030029B78
:1030E0000693019B0593039B5B68039A116804AAEE
:1030F0001046984700BF09B05DF804FB00B587B0E3
:103100000190009100238DF80830009B0493019BEF
:103110009B680393019B00225A61019B5B68019AA3
:10312000116802AA1046984700BF07B05DF804FB7B
:1031300000B58BB0019000914FF400710198FFF73A
:103140008AFC0346002B39D04FF492710198FFF7A7
:1031500066FC0346002B31D04FF492710198FFF7C3
:1031600049FC4FF401710198FFF785FC009B93F82F
:10317000293083F00103DBB2002B03D00421019836
:10318000FFF7CEFC02238DF80C300198FFF77DFC91
:1031900003460693009B9B690593009BDB680493A1
:1031A000009B00229A61009B0022DA61009B5B6811
:1031B000009A116803AA1046984752E0042101982A
:1031C000FFF749FC0346002B4BD04FF48471019864
:1031D000FFF725FC0346002B43D000990198FFF729
:1031E0004FFF009B9A69009B5B6A9A4239D1009B12
:1031F000DB69002B19D0009BDB680993009B5B6A9D
:103200000893009BDA69009B9A61009B1A69009BF6
:10321000DA60009B0022DA61009B00225A62099A60
:1032200008990098FFF753FF1BE0009B93F82930A3
:1032300083F00103DBB2002B03D004210198FFF7D8
:103240006FFC4FF401710198FFF715FC009B002201
:103250009A61009B596A009BDB681A460098FFF749
:1032600036FF4FF48E710198FFF7D9FB0346002B10
:1032700024D0009B5B690793009B1B6A079A9A42C4
:103280000DD9009B93F82830DBB283F00103DBB249
:10329000002B04D000990198FFF70AFE0EE04FF4CE
:1032A0008E710198FFF7A6FB009B5B69002B05D090
:1032B000009B5B6919460098FFF720FF4FF4A2714D
:1032C0000198FFF7ACFB0346002B1CD04FF4A27112
:1032D0000198FFF78FFB009B93F82930002B03D058
:1032E00000210198FFF71CFC009B9B69002B0AD072
:1032F000009B00229A61009B596A009BDB681A467A
:103300000098FFF7E4FE00BF0BB05DF804FB00007F
:1033100008B503490348FFF70BFF00BF08BD00BF16
:10332000140700200020004082B003468DF80730CB
:103330009DF8073003F01F0205499DF907305B092E
:10334000012000FA02F241F8232000BF02B07047CA
:1033500000E100E082B0034600918DF807309DF94E
:103360000730002B0CDA009BDAB20C499DF80730CD
:1033700003F00F03043B5201D2B20B441A7609E06A
:10338000009BDAB206499DF907305201D2B20B44D4
:1033900083F8002300BF02B0704700BF00ED00E0DB
:1033A00000E100E082B00190019B03F06043B3F1C3
:1033B000005F0CBF01230023DBB2184602B0704748
:1033C00082B00190019B1B0B5BB2184602B07047A4
:1033D00000B583B003460A468DF8073013468DF8D2
:1033E00006309DF80630072B03D908496B200AF0F8
:1033F00063FD9DF806209DF9073011461846FFF73A
:10340000A9FF00BF03B05DF804FB00BF8CF600000D
:1034100000B583B003468DF807309DF90730184694
:10342000FFF782FF00BF03B05DF804FB84B001909A
:103430000B46ADF80230BDF80230019A1344002269
:103440001A60BDF80230019A13441B680393039B72
:1034500000BF04B0704782B001900B46ADF8023057
:10346000BDF80230019A13441B68002B14BF0123DE
:103470000023DBB2184602B0704782B00190009181
:10348000019BD3F80022009BDB431A40019BC3F849
:10349000002200BF02B0704782B001900091019BF2
:1034A000009AC3F8042300BF02B0704784B00190B3
:1034B000019BD3F880340393019B039AC3F88024C3
:1034C000039B184604B0704782B00190019B08220C
:1034D000C3F8002500BF02B0704784B0039002918A
:1034E0000192039B029AC3F80C25039B019AC3F82F
:1034F000142500BF04B0704784B00390029101927C
:10350000039B029AC3F80825039B019AC3F8102570
:1035100000BF04B0704782B001900B468DF80330B5
:103520009DF80330019A134401221A6000BF02B0D3
:10353000704782B001900B468DF8033013468DF82A
:1035400002309DF803209DF802301343DBB21A4687
:10355000019BC3F86C2500BF02B0704782B0019098
:103560000091019B009AC3F8242500BF02B0704768
:1035700084B0039002910192029A039BC3F8442500
:10358000039B019AC3F8482500BF04B0704782B07E
:103590000190019BD3F84C35184602B0704782B0B9
:1035A0000190019BD3F83C35184602B070470000EB
:1035B00000B583B00190019B1B682F2B04D90B49E8
:1035C00040F2CD100AF078FC019B1B681F2B02D83B
:1035D0004FF0A04306E0019B1B6803F01F02019B14
:1035E0001A60034B184603B05DF804FBC0F60000F8
:1035F0000003005000B585B00190084611461A46F8
:1036000003468DF803300B468DF8023013468DF8D3
:10361000013001AB1846FFF7CBFF03909DF8032064
:103620009DF802305B001A439DF801309B001A435D
:103630009DF818301B0242EA03019DF81C301B0460
:10364000019A1943039B02F5E07243F8221000BF70
:1036500005B05DF804FB00B585B00390002301932D
:10366000002300930023012201210398FFF7C2FFEA
:1036700000BF05B05DF804FB00B585B003900B46B4
:103680008DF80B309DF80B30002201920022009241
:10369000002200210398FFF7ADFF00BF05B05DF8E1
:1036A00004FB00B585B0019001AB1846FFF780FF21
:1036B0000390019B012202FA03F31946039800F0DC
:1036C00004F800BF05B05DF804FB82B001900091E2
:1036D000019B009AC3F8082500BF02B0704700B5EF
:1036E00083B001900091009B1B68B3F1FF3F09D0AC
:1036F000009B1B681846FFF7D4FF009B1B68184609
:10370000FFF7A9FF009B5B68B3F1FF3F05D0009B6B
:103710005B6800211846FFF7AFFF019B1A68009B0A
:103720009B6919461046FFF719FF019B1868009B1B
:10373000597D009B1B7D1A46FFF7FBFE019B186815
:10374000009B1968009B5B681A46FFF7C6FE009B4A
:103750001B7D012B22D1009B9B68B3F1FF3F05D05D
:10376000009B9B6800211846FFF786FF009BDB68E3
:10377000B3F1FF3F09D0009BDB681846FFF791FFCC
:10378000009BDB681846FFF766FF019B1868009BEB
:10379000D968009B9B681A46FFF7AEFE00BF03B0D6
:1037A0005DF804FB00B583B001900B468DF8033043
:1037B000019B1B684FF488711846FFF737FE019B89
:1037C0001B684FF490711846FFF730FE019B1B6891
:1037D0004FF492711846FFF729FE019B1B684FF4C6
:1037E000A2711846FFF722FE019B1B684FF4AC71D3
:1037F0001846FFF71BFE019B1B680F491846FFF791
:103800004BFE019B1B681846FFF7DAFD03461A467C
:103810009DF8033019461046FFF7DAFD019B1B683F
:103820001846FFF7CDFD03461846FFF7F1FD00BF30
:1038300003B05DF804FB00BF1003420000B587B081
:10384000039002910192029B002B03D12B49CF20C0
:103850000AF032FB039B1B791A461346DB00134424
:103860009B00274A1344049300230593049B93F879
:103870002030002B03D008230593059B3AE0039BDF
:103880001A68039B1B7919461E4B53F821301946C1
:103890001046FFF701F80346002B03D011230593D0
:1038A000059B27E002990398FFF719FF049B019AF3
:1038B0005A60029B1A69049B1A60049B5B68002B88
:1038C00005D0029B1B7F19460398FFF76BFF039BF4
:1038D0001B681846FFF7F8FD049B00229A61049BC1
:1038E0000022DA61049B00225A61049B012283F8C2
:1038F0002020059B184607B05DF804FBFCF600008D
:103900004007002060F7000000B589B003900291E5
:103910000192039B1B791A461346DB0013449B005C
:103920005B4A13440593059B93F82030012B04D088
:10393000584940F22D100AF0BFFA029B002B04D127
:1039400054494FF497700AF0B7FA019B002B04D149
:10395000504940F22F100AF0AFFA039B1B79002B5D
:1039600003D1019BB3F5803F0CD3039B1B79012B43
:1039700003D1019BB3F5803F04D346494FF49870BF
:103980000AF09AFA0298FFF70DFD034683F001034F
:10399000DBB2002B03D010230793079B73E003983F
:1039A00000F07AF80346002B03D011230793079BFE
:1039B00069E0059B019A5A61059B029A9A6000236F
:1039C0000793039B1B684FF490711846FFF72EFD79
:1039D000039B1B684FF4AC711846FFF727FD039B50
:1039E0001868059B9968059B5B691A46FFF7C0FD3F
:1039F000039B1B6808211846FFF78DFD059B5B683C
:103A0000002B3FD1039B1B684FF490711846FFF7C2
:103A100022FD03468DF81B30039B1B684FF4AC71ED
:103A20001846FFF718FD03468DF81A309DF81B3035
:103A300083F00103DBB2002B06D09DF81A3083F02F
:103A40000103DBB2002BDDD19DF81A30002B02D030
:103A50000F23079313E0039B1B680C211846FFF705
:103A60005AFD00BF039B1B684FF4AC711846FFF76B
:103A7000F2FC034683F00103DBB2002BF2D1059B7D
:103A800000225A61079B184609B05DF804FB00BF8D
:103A900040070020FCF6000082B00190019B1B79DA
:103AA0001946084A0B46DB000B449B0013441433B1
:103AB0001B68002B14BF01230023DBB2184602B0A1
:103AC000704700BF4007002000B589B00390029105
:103AD000019201238DF81030029B0693019B059300
:103AE000039B5B68039A116804AA1046984700BFBD
:103AF00009B05DF804FB00B587B001900091002388
:103B00008DF80830009B0493019B9B680393019BF5
:103B100000225A61019B5B68019A116802AA104653
:103B2000984700BF07B05DF804FB00B589B001906D
:103B300000914FF492710198FFF78DFC0346002B22
:103B400022D04FF492710198FFF770FC02238DF898
:103B500008300198FFF7AAFC034605930198FFF788
:103B60001EFD03460493009BDB680393009B002229
:103B70009A61009B0022DA61009B5B68009A1168E1
:103B800002AA104698473BE04FF488710198FFF76E
:103B900062FC0346002B33D04FF488710198FFF785
:103BA00045FC0198FFF7FBFC0790009B9B69079A77
:103BB0009A4225D1009BDB69002B17D0009BDB6864
:103BC000069320210198FFF758FC009BDA69009BBF
:103BD0009A61009B1A69009BDA60009B0022DA61FF
:103BE000069A07990098FFF76FFF09E0009B0022F3
:103BF0009A61009BDB681A4607990098FFF764FFFB
:103C00004FF4A2710198FFF726FC0346002B18D051
:103C10004FF4A2710198FFF709FC009B9B69002BF0
:103C20000FD0009B00229A61009B0022DA6101986C
:103C3000FFF7B5FC0146009BDB681A460098FFF7CA
:103C400043FF4FF490710198FFF705FC0346002BEA
:103C500014D04FF490710198FFF7E8FB0C21019804
:103C6000FFF759FC009B5B69002B07D00198FFF719
:103C70008EFC034619460098FFF73DFF4FF4AC71E8
:103C80000198FFF7E8FB0346002B10D04FF4AC710E
:103C90000198FFF7CBFB009B5B69002B07D00198D5
:103CA000FFF775FC034619460098FFF724FF00BF95
:103CB00009B05DF804FB000008B503490348FFF7AD
:103CC00034FF00BF08BD00BF4007002000200040B7
:103CD00008B503490348FFF728FF00BF08BD00BF30
:103CE000640700200080024082B003468DF8073050
:103CF0009DF8073003F01F0205499DF907305B0965
:103D0000012000FA02F241F8232000BF02B0704700
:103D100000E100E082B0034600918DF807309DF984
:103D20000730002B0CDA009BDAB20C499DF8073003
:103D300003F00F03043B5201D2B20B441A7609E0A0
:103D4000009BDAB206499DF907305201D2B20B440A
:103D500083F8002300BF02B0704700BF00ED00E011
:103D600000E100E082B00190019B1B0B5BB21846A2
:103D700002B0704700B583B003460A468DF807309D
:103D800013468DF806309DF80630072B03D90849F5
:103D90006B200AF091F89DF806209DF90730114636
:103DA0001846FFF7B7FF00BF03B05DF804FB00BF84
:103DB00068F7000000B583B003468DF807309DF921
:103DC00007301846FFF790FF00BF03B05DF804FB13
:103DD00084B001900B46ADF80230BDF80230019A74
:103DE000134400221A60BDF80230019A13441B6884
:103DF0000393039B00BF04B0704782B001900B4651
:103E0000ADF80230BDF80230019A13441B68002B54
:103E100014BF01230023DBB2184602B0704782B002
:103E200001900091019BD3F80022009B1A43019B53
:103E3000C3F8002200BF02B0704782B00190009129
:103E4000019BD3F80022009BDB431A40019BC3F87F
:103E5000002200BF02B0704782B001900091019B28
:103E6000009AC3F8042300BF02B0704782B00190EB
:103E70000091019B009AC3F8082300BF02B070476D
:103E800082B001900091019BD3F80423009B134062
:103E9000002B14BF01230023DBB2184602B0704789
:103EA00082B001900B468DF80330019BD3F80435A6
:103EB00023F003029DF8033003F003031A43019B30
:103EC000C3F8042500BF02B0704782B001900B46D2
:103ED0008DF80330019BD3F8083523F003029DF8D9
:103EE000033003F003031A43019BC3F8082500BF06
:103EF00002B0704782B001900B468DF80330019BF1
:103F0000D3F8103523F00F029DF8033003F00F03B0
:103F10001A43019BC3F8102500BF02B0704784B05C
:103F200003900B4601928DF80B309DF80B20039BFC
:103F300002F5A872019943F8221000BF04B070473F
:103F400082B00190019B9B0003F5A0739BB21846C1
:103F500002B0704782B001904FF48032019B02FAA8
:103F600003F3184602B0704710B588B00390029171
:103F70000192039B1B791A4613465B0013449B0076
:103F8000704A13440793029B002B03D16E494A20C9
:103F900009F092FF019B002B03D16B494B2009F0E4
:103FA0008BFF079B1B7A002B03D008230593059BEF
:103FB000C4E0039B1B68654A93420FD1029B9B7828
:103FC000012B64D0029B9B78002B60D0029B9B78D6
:103FD000022B5CD0029B9B78032B58D0039B1B6861
:103FE0005B4A93420FD1029B9B78012B4FD0029BDF
:103FF0009B78002B4BD0029B9B78022B47D0029BD7
:104000009B78032B43D0039B1B68524A93420FD1EA
:10401000029B9B78012B3AD0029B9B78002B36D0D9
:10402000029B9B78022B32D0029B9B78032B2ED0D5
:10403000039B1B68484A93420FD1029B9B78012B3C
:1040400025D0029B9B78002B21D0029B9B78022BD2
:104050001DD0029B9B78032B19D0039B1B683F4A02
:1040600093420FD1029B9B78012B10D0029B9B782F
:10407000002B0CD0029B9B78022B08D0029B9B78D4
:10408000032B04D030495F2009F016FF00E000BF89
:10409000079B019A1A60029B5A68079B5A6000238B
:1040A0008DF81B3010E0039B1C689DF81B301846F0
:1040B000FFF746FF034619462046FFF789FE9DF8A5
:1040C0001B3001338DF81B30039B5B799DF81B205F
:1040D0009A42E8D3039B1B681846FFF743FE03464A
:1040E0001A46029BDB7819461046FFF743FE039BF6
:1040F0001B681846FFF736FE03461846FFF75AFEC0
:10410000039B1A68029B5B7819461046FFF7C8FEAE
:10411000039B1A68029B9B7819461046FFF7D5FE51
:10412000039B1A68029B1B7819461046FFF7E2FEB4
:10413000079B01221A7200230593059B184608B0BD
:1041400010BD00BF88070020A4F7000000800040D9
:104150000090004000A0004000A0014000B00140DD
:1041600010B586B0039001921A460B468DF80B30BD
:1041700013468DF80A309DF80B301846FFF7EAFE1B
:1041800005909DF80A30002B12D0039B1C689DF807
:104190000B301846FFF7D4FE034619462046FFF7BA
:1041A00017FE039B1B6805991846FFF755FE05E0AF
:1041B000039B1B6805991846FFF758FE039B1B6875
:1041C0009DF80B10019A1846FFF7A9FE00BF06B034
:1041D00010BD00B585B0039001921A460B468DF8CC
:1041E0000B301346ADF80830039B18689DF80B3070
:1041F0004FF480729A409DF80B30012101FA03F3CD
:1042000013431946FFF719FE039B1B68BDF80820EE
:1042100011461846FFF703FE9DF818309DF80B1065
:10422000019A0398FFF79CFF00BF05B05DF804FBFF
:1042300000B587B00390029113468DF80730002334
:104240008DF8173030E09DF817301846FFF778FEEC
:104250000346ADF814309DF817301846FFF77AFE84
:104260000490BDF8143019460398FFF7C6FD0346C5
:10427000002B14D004990398FFF702FE0346002B8D
:104280000DD0BDF8143019460398FFF7A1FD029B2D
:104290001B68029A5168BDF81420104698479DF893
:1042A000173001338DF817309DF817209DF807302F
:1042B0009A42C8D300BF00BF07B05DF804FB0000FE
:1042C00008B5042202490348FFF7B2FF00BF08BD4A
:1042D000880700200080004008B5042202490348F6
:1042E000FFF7A6FF00BF08BD940700200090004024
:1042F00008B5042202490348FFF79AFF00BF08BD32
:10430000A007002000A0004008B50622024903488B
:10431000FFF78EFF00BF08BDAC07002000A00140E2
:1043200008B5062202490348FFF782FF00BF08BD17
:10433000B807002000B0014082B003468DF8073076
:104340009DF8073003F01F0205499DF907305B090E
:10435000012000FA02F241F8232000BF02B07047AA
:1043600000E100E082B0034600918DF807309DF92E
:104370000730002B0CDA009BDAB20C499DF80730AD
:1043800003F00F03043B5201D2B20B441A7609E04A
:10439000009BDAB206499DF907305201D2B20B44B4
:1043A00083F8002300BF02B0704700BF00ED00E0BB
:1043B00000E100E000B583B003460A468DF80730FF
:1043C00013468DF806309DF80630072B03D90849AF
:1043D0006B2009F071FD9DF806209DF9073011460C
:1043E0001846FFF7BFFF00BF03B05DF804FB00BF36
:1043F00008F8000000B583B003468DF807309DF93A
:1044000007301846FFF798FF00BF03B05DF804FBC4
:1044100082B001900091019B009AC3F8042300BF71
:1044200002B0704782B001900091019B009AC3F8DE
:10443000082300BF02B0704782B001900091019B39
:10444000D3F80423009B1340184602B0704782B093
:1044500001900B46ADF80230BDF80230019A1344CA
:104460001B68184602B0704784B001900B46ADF847
:104470000230BDF80230019A134400221A60BDF8E0
:104480000230019A13441B680393039B00BF04B0DE
:104490007047000000B583B001900091009BB3F518
:1044A000805F04D306494FF4BE7009F005FD019BFF
:1044B000009AC3F8082500BF03B05DF804FB00BFF5
:1044C0003CF8000082B001900091019B009AC3F873
:1044D000442300BF02B0704782B001900091019B5D
:1044E000009AC3F8482300BF02B0704700B587B0F8
:1044F000039002910192029B002B03D1314951207C
:1045000009F0DAFC019B002B03D12E49522009F05F
:10451000D3FC039B5B7919462B4A019B42F821305F
:10452000039B5B791946294A0B465B000B441344F5
:104530001B78002B03D008230593059B3DE0039BCC
:1045400093F90420029B9B7819461046FFF732FF2F
:10455000039B93F904301846FFF74CFF039B1A683E
:10456000029B1B8819461046FFF794FF039B5B795B
:104570001946029B1879154A0B465B000B441344FD
:10458000013302461A70039B5B791946029BD87867
:104590000E4A0B465B000B441344023302461A706A
:1045A000039B5B791946094A0B465B000B44134495
:1045B00001221A7000230593059B184607B05DF889
:1045C00004FB00BF70F80000C4070020C8070020EB
:1045D00000B585B001900B468DF803304FF4807321
:1045E000ADF80E3001230293019B1B68BDF80E202D
:1045F00011461846FFF738FF019B1B6802991846C1
:10460000FFF760FF9DF80330002B05D0019B1B686E
:1046100002991846FFF7FCFE00BF05B05DF804FBE9
:1046200000B589B00390029101924FF48033069354
:104630004FF4A073ADF81E300023059330E00699C7
:104640000398FFF7F9FE0346002B1ED0BDF81E307D
:1046500019460398FFF7FBFE0346002B15D0069979
:104660000398FFF739FF06990398FFF7DBFEBDF8C3
:104670001E3019460398FFF7F7FE2D4A029B52F8A9
:104680002330059AD2B210469847069B5B000693EA
:10469000BDF81E300433ADF81E30059B0133059381
:1046A000059A019B9A42CAD34FF48073ADF81E302D
:1046B00001210398FFF7C0FE0346002B14D0BDF87C
:1046C0001E3019460398FFF7C2FE0346002B0BD09D
:1046D000BDF81E3019460398FFF7C6FE144A029B28
:1046E00052F82330042098474FF48273ADF81E30FF
:1046F00002210398FFF7A0FE0346002B14D0BDF85B
:104700001E3019460398FFF7A2FE0346002B0BD07C
:10471000BDF81E3019460398FFF7A6FE044A029B17
:1047200052F823300520984700BF09B05DF804FB1C
:10473000C407002008B5032200210248FFF770FFDC
:1047400000BF08BD00B0004000B583B00190019BE0
:104750001B682F2B04D90B4940F2CD1009F0ACFB9C
:10476000019B1B681F2B02D84FF0A04306E0019B62
:104770001B6803F01F02019B1A60034B184603B02D
:104780005DF804FBD0F800000003005000B585B0D0
:10479000019001AB1846FFF7D7FF0390019B012260
:1047A00002FA03F31946039800F03AF800BF05B087
:1047B0005DF804FB00B585B0019001AB1846FFF72A
:1047C000C3FF0390019B012202FA03F319460398E9
:1047D00000F030F800BF05B05DF804FB00B585B00F
:1047E000019001AB1846FFF7AFFF0390039BD3F88E
:1047F00004350293029BDA43019B012101FA03F382
:104800001A40039BC3F80825019B01229A40029B92
:104810001A40039BC3F80C2500BF05B05DF804FBEC
:1048200082B001900091019B009AC3F8082500BF57
:1048300002B0704782B001900091019B009AC3F8CA
:104840000C2500BF02B0704700B587B003900291FD
:1048500013468DF8073000230593039B1B781A46F7
:10486000114B9B5C002B09D0039B04339DF8072060
:1048700002991846FFF748F805900FE0039B1B7854
:104880001A46094B9B5C002B08D1039B0C339DF807
:10489000072002991846FEF755FB0590059B184620
:1048A00007B05DF804FB00BF9C06002000B585B092
:1048B00001900091019B1B78002B1ED11422FF2137
:1048C00010480AF0B4FB104B1B78002B14D00E4B91
:1048D00000221A7014220B490C48FFF7B5FF039011
:1048E0000B4A0C4BD31ADB081B0443F00303039A57
:1048F00009491846FCF7ECF900BF00BF05B05DF8A8
:1049000004FB00BF4008002055080020F8FA000012
:1049100068F1000038F1000004F9000000B583B030
:104920004FF480410020FBF7EDFE0190019B0093C6
:10493000009B002B04D0054A8821009809F0BAF9A1
:10494000FBF776FE00BF03B05DF804FB14F900002E
:1049500008B50120FCF750FF00BF08BD00B585B0C9
:1049600001900B468DF80330019B0B2B03D0019B6C
:104970000C2B21D025E01422FF2114480AF057FB0C
:10498000142212491248FFF75FFF0390039B029322
:10499000029B002B04D00F4A9A21029809F08AF951
:1049A0000D4A0E4BD31ADB081B0443F003030C49DA
:1049B0001846FCF77FF904E00A4B1B6801225A6095
:1049C00000BF00BF05B05DF804FB00BF4008002039
:1049D000F8FA000014F9000068F1000038F1000056
:1049E00084F900005000002000B589B0FDF702FCFA
:1049F0000790079B0693069B002B04D0334AA821FF
:104A0000069809F057F9324A01AB1268114619802D
:104A10000233120C1A7003238DF8053001AB2D4AB6
:104A200019460B20FDF7A0FC0790079B0593059BFB
:104A3000002B04D0254AAE21059809F03BF901214D
:104A40000B20FDF70BFD01AB224A19460C20FDF7A8
:104A50008BFC0790079B0493049B002B04D01B4AFC
:104A6000B221049809F026F901210C20FDF7F6FC8B
:104A700001AB184A19461820FDF776FC0790079BF2
:104A80000393039B002B04D0104AB621039809F02E
:104A900011F901211820FDF7E1FC01AB0D4A19467F
:104AA0001920FDF761FC0790079B0293029B002BE6
:104AB00004D0064ABA21029809F0FCF80121192015
:104AC000FDF7CCFC00BF09B05DF804FB14F9000051
:104AD00088F900005D49000000B585B0DB238DF842
:104AE0000C30DE238DF80D3003AB184601F02AF8A8
:104AF0009DF80C308DF804309DF80D308DF80530A0
:104B000040238DF8063030238DF8073020238DF8B0
:104B1000083010238DF80930BA238DF80A30BA23F3
:104B20008DF80B3001AB184601F002F8094A0A4B28
:104B3000D31ADB081B0443F003009DF80A301A4621
:104B40009DF80B300549FCF7D4F800BF05B05DF8BF
:104B500004FB00BF68F1000038F100008CF9000090
:104B600000B589B001238DF8153001238DF814307C
:104B700024238DF8163006238DF8173001238DF885
:104B8000113001238DF8103023238DF812300723C4
:104B90008DF81330052302931723019310238DF80A
:104BA00019300F238DF8183001AB184609F002F8C0
:104BB00003460793079B002B0AD1074A074BD31ADA
:104BC000DB081B0443F0030305491846FCF772F8A1
:104BD00000BF09B05DF804FB68F1000038F1000087
:104BE000BCF9000000B583B0FFF776FFBA238DF85B
:104BF0000430BA238DF8053001AB184600F08EFF63
:104C0000124A134BD31ADB081B0443F00303114968
:104C10001846FCF74FF800238DF807309DF9073050
:104C2000184600F06DFF094A094BD31ADB081B0434
:104C300043F003039DF9072007491846FCF748F89D
:104C4000FFF78EFF00BF03B05DF804FB68F10000C2
:104C500038F10000D0F90000E8F9000082B0034606
:104C60000091ADF8063000BF02B0704782B0034635
:104C70000091ADF8063000BF02B0704700B583B0B8
:104C800003460091ADF806302120FFF77FFD424B2F
:104C900001221A60414B1B6801221A64404A414BB1
:104CA000D31ADB081B0443F00300BDF806203B4B7E
:104CB0001B68D3F840353C49FCF71BF83B4B93F994
:104CC00000301A463A4B9B5C002B2FD0374B93F9A0
:104CD00000301A46364B995C364B1A68BDF80630E0
:104CE000A3F5A073002B00DA03339B1003F5A87320
:104CF00042F82310304B1968BDF80630A3F5A073B5
:104D0000002B00DA03339B1003F11002294B1B68C0
:104D100001FA02F2C3F80423244B93F90030DBB20A
:104D20000133DBB25AB2214B1A7014E0224B1968DE
:104D3000BDF80630A3F5A073002B00DA03339B10F7
:104D400003F110021B4B1B6801FA02F2C3F808239F
:104D50001A4B01221A70194B1B78002B18D0154BD7
:104D60001B68D3F80833002B12D1124B1B680122A9
:104D70005A60104B1B680122DA60094A094BD31AAA
:104D8000DB081B0443F003030D491846FBF792FFB1
:104D900000BF03B05DF804FB00B0004048000020F5
:104DA00068F1000038F1000000FA0000CC07002094
:104DB000D0070020500000204400002054080020AC
:104DC00014FA000000B58BB0344A03AB92E803003C
:104DD00083E8030003238DF80E3004238DF80C3094
:104DE00003AB2F4A19462F48FFF7BEF80990099BDD
:104DF0000893089B002B05D02B4A40F227110898F6
:104E000008F058FF00238DF80E3009238DF80C3080
:104E100003AB264A19462648FFF7A6F80990099BD6
:104E20000793079B002B05D01F4A4FF496710798F4
:104E300008F040FF4FF49C7306931E4A1E4BD31A92
:104E4000DB081B0443F00303069A1C491846FBF7D2
:104E50003FFF012300930123069A00211448FFF726
:104E6000B8F909238DF80C3001238DF80E3003AB0F
:104E7000134A19461348FFF777F80990099B0593E1
:104E8000059B002B05D0084A4FF49A71059808F04D
:104E900011FF00BF0BB05DF804FB00BF2CFA00004F
:104EA0005D4C00004800002014F900006D4C00002B
:104EB0005800002068F1000038F100001CFA0000E2
:104EC0007D4C00005000002000B583B001238DF818
:104ED000043000238DF8053000238DF8063001AB37
:104EE00019462520FDF7D8F901AB19462120FDF719
:104EF000D3F900BF03B05DF804FB000000B583B038
:104F00000A4A0B490B48FCF7DDFC0190019B00931A
:104F1000009B002B05D0084A40F24F11009808F082
:104F2000C9FE00BF03B05DF804FB00BFAD48000040
:104F300060000020F8FA000014F9000000B583B00A
:104F400003468DF807309DF80730042B18D10E4B1F
:104F50001B6801221A640D4A0D4BD31ADB081B048F
:104F600043F00300084B1B68D3F840351A46094943
:104F7000FBF7AEFE2120FFF71DFC074B01225A6014
:104F800000BF03B05DF804FB4800002068F100009A
:104F900038F1000034FA000000B0004000B585B0E0
:104FA000134A6B4692E80300186004331980082303
:104FB000ADF8003006238DF802306B460D4A1946D5
:104FC0000D48FFF793FA0390039B0293029B002B7B
:104FD00005D00A4A4FF4B771029808F06BFE012120
:104FE0000548FFF7F5FA00BF05B05DF804FB00BF08
:104FF0003CFA00003D4F00000CFB000014F90000DB
:1050000000B583B0FFF78AFCFFF7A2FCFFF7ECFCCA
:10501000FFF7D8FEFFF758FFFFF770FF00F09CFD89
:10502000FFF7E0FDFFF7BAFF0020FCF769FB154A28
:10503000154BD31ADB081B0443F00303134918462E
:10504000FBF738FE124B1B6801221A6000F0A9FD25
:1050500003468DF807300B4A0B4BD31ADB081B04B1
:1050600043F003039DF807200A491846FBF730FE7A
:1050700000BFFBF77BFE0346002BFAD130BF00BF19
:10508000F6E700BF68F1000038F1000044FA0000C4
:10509000480000205CFA000000B589B001900B4682
:1050A0008DF8033013468DF80230A54B1B78002B8A
:1050B00002D02520FFF792FBA24B1B78002B07D0D4
:1050C000A14B1B6801225A609F4B1B680122DA60CA
:1050D000019B1B780D2B67D1019B9A7A9B4B1A7011
:1050E0009B4B1B881A01019B02331B781B02019901
:1050F000013109780B431340002B14D0019B9A7A9D
:10510000924B1A70934A944BD31ADB081B0443F05A
:1051100003038E4A127891491846FBF7D9FD012006
:10512000FCF7EEFA40E0019B9A7A884B1A70894AA4
:10513000894BD31ADB081B0443F00303834A12781C
:1051400087491846FBF7C4FD0120FCF7F3FA814AB2
:10515000814BD31ADB081B0443F00303814A1288F6
:1051600081491846FBF7B4FD7E4B1B88DAB27F4BB2
:105170001A707C4B1B881B0A9BB2DAB27B4B5A70AD
:1051800014227A497A48FFF75FFB0690069B059345
:10519000059B002B05D0774A40F2B111059808F025
:1051A00089FD754B01221A7070220199734809F02C
:1051B00015FF12227249734809F010FF019800F0A0
:1051C00001FD6E4BDA78694B1A70684B01225A70F8
:1051D0006A4B1B78702B40F0AE805C4B1B78013320
:1051E000DAB25A4B1A70654BDA78584B1B789A42F0
:1051F00013D0654B1B6801221A645A4B1B8801337C
:105200009AB2584B1A80514B1B780133DAB24F4B8C
:105210001A700220FFF7E2FA8DE05B4B1B68012257
:105220001A645A4B1B78002B10D014224F49504857
:10523000FFF70AFB0490049B0393039B002B05D00C
:105240004C4A40F2D111039808F034FD3D4B1B78D5
:10525000002B70D04E4B0A221A704E4B00221A704F
:105260000A2307933FE0454A079B13441B78002B12
:105270003DD0384A384BD31ADB081B0443F00300F7
:105280003E4A079B13441B781A464349FBF720FD0F
:105290003A4A079B134419782B4B1B68079A0A3A22
:1052A00002F5A87243F822103C4B1968079B9A1D1F
:1052B000254B1B6801FA02F2C3F80423079BDBB2FB
:1052C0000133DBB25AB2324B1A70224A224BD31A44
:1052D000DB081B0443F0030331491846FBF7EAFCE3
:1052E000079B01330793079B0F2BBCDD00E000BF3A
:1052F000274B93F900300A2B1DD0164A164BD31AB0
:10530000DB081B0443F0030326491846FBF7D2FCD5
:10531000104A114BD31ADB081B0443F003000A4B5D
:105320001B68D3F804331A461F49FBF7D1FC064B20
:105330001B6801221A6000BF09B05DF804FB00BFC2
:1053400040000020CB07002050000020CD070020A7
:105350004200002068F1000038F100007CFA0000F3
:1053600090FA0000CE070020A4FA000040080020B8
:10537000F8FA000014F9000055080020D0070020BA
:10538000DB070020420800204800002041000020E8
:10539000CC07002054080020B4FA0000440000208C
:1053A000B8FA0000D0FA0000E0FA000000B583B0BF
:1053B00003468DF807300F4B1B6801221A640E4A12
:1053C0000E4BD31ADB081B0443F003009DF80720A3
:1053D000084B1B68D3F840350949FBF78AFC094B99
:1053E0001B8801339AB2074B1A8000BF03B05DF8E7
:1053F00004FB00BF4800002068F1000038F1000005
:10540000E4FA0000CE07002082B0019000BF02B095
:105410007047000000B583B01F4B0193019B02222F
:105420001A61019B02225A61019B1C4A9A61019BED
:105430001B4ADA61019B4FF400721A62019B002241
:105440009A62019B00225A62019B0022DA62019B50
:10545000124A9A64019B134ADA64019B10221A656E
:10546000019B00229A65019B00225A65019B002244
:10547000DA65019B07330C49184609F00BFE019BC6
:105480000A49184609F006FE019B20229A7100BFC6
:1054900003B05DF804FB00BF5808002014FB0000B7
:1054A000D0080020D00A002020FB000024FB0000D0
:1054B00000B589B003900291019200230693039BEB
:1054C000DB680593039B1B690493049A059B9A422E
:1054D00005D9049A059BD31A013B079307E0039B68
:1054E0009A680499059BCB1A1344013B0793039BCD
:1054F0009A68059BD31A079A934228BF13460793CD
:10550000079A019B934228BF13460793039B5A684F
:10551000059B1344079A0299184609F05FFD069A05
:10552000079B13440693029A079B13440293019A24
:10553000079BD31A0193059A079B13440593039B7A
:105540009B68059A9A4201D100230593039B059A13
:10555000DA60019B002BB5D1069B184609B05DF8B7
:1055600004FB00B589B0039002910192039BDB68B4
:105570000793039B9A68079BD31A0693069A019B8D
:105580009A420ED9039B5A68079B1344019A0299C9
:10559000184609F023FD079A019B1A44039BDA6021
:1055A0001AE0069B0593039B5A68079B1344059AD0
:1055B0000299184609F012FD019A069BD31A059329
:1055C000039B5868029A069B1344059A194609F0F2
:1055D00005FD039B059ADA6000BF09B05DF804FB86
:1055E00086B00190019B1B690493019BDB680393C8
:1055F000049A039B9A4208D8019B9A68039BD21A8B
:10560000049B1344013B059304E0049A039BD31AC3
:10561000013B0593059B184606B0704700B589B05D
:10562000039002910192029B0693039B5A1C13461E
:105630005B001344DB00204A13440593059B5B6920
:10564000022B29D0022B2ED8002B02D0012B13D0F5
:1056500029E00598FFF7C4FF0490049A019B9A4241
:1056600002D20023079321E0019B0793019A069938
:105670000598FFF776FF19E00598FFF7B1FF049052
:10568000019A049B934228BF13460793079A0699F1
:105690000598FFF766FF09E0019A06990598FFF75C
:1056A00007FF079002E00023079300BF079B1846FF
:1056B00009B05DF804FB00BF5808002008B5FFF7EB
:1056C000A9FE00BF08BD0000BFF34F8F00BF074B0E
:1056D000DB6803F4E0620549054B1343CB60BFF37D
:1056E0004F8F00BF00BF00BFFCE700BF00ED00E030
:1056F0000400FA05024B034A1A6000BF704700BF5E
:10570000800000200090D00308B500F027F9034680
:10571000002B0ED04FF080430022C3F80C214FF035
:1057200080430022C3F810214FF080430022C3F8C9
:10573000382500F037F90346002B76D04FF0805320
:105740007D4AD3F80434C2F820354FF080537A4AAA
:10575000D3F80834C2F824354FF08053764AD3F892
:105760000C34C2F828354FF08053734AD3F8103404
:10577000C2F82C354FF080536F4AD3F81434C2F876
:1057800030354FF080536C4AD3F81834C2F83435B2
:105790004FF08053684AD3F81C34C2F840354FF0BC
:1057A0008053654AD3F82034C2F844354FF0805313
:1057B000614AD3F82434C2F848354FF080535E4A2A
:1057C000D3F82834C2F84C354FF080535A4AD3F8F6
:1057D0002C34C2F850354FF08053574AD3F8303448
:1057E000C2F854354FF08053534AD3F83434C2F8DA
:1057F00060354FF08053504AD3F83834C2F86435DE
:105800004FF080534C4AD3F83C34C2F868354FF01F
:105810008053494AD3F84034C2F86C354FF0805376
:10582000454AD3F84434C2F8703500F0DFF8034637
:10583000002B02D0414B424A1A6000F0E9F80346BF
:10584000002B03D03F4BFB22C3F8182500F0F2F8E1
:105850000346002B0AD03C4B1B6823F00F023B4B46
:105860001B6803F00F03384913430B6000F0F4F892
:105870000346002B03D0364B4FF400721A6000F041
:10588000FDF80346002B0DD04FF08043D3F80034D1
:1058900003F00103002B05D04FF080436FF00102AD
:1058A000C3F800242B4BD3F888302A4A43F4700302
:1058B000C2F88830BFF34F8F00BFBFF36F8F00BFB8
:1058C0004FF01023D3F80032002B05DB4FF01023EC
:1058D000D3F80432002B2BDA1F4B0122C3F8042526
:1058E00000BF1D4BD3F80034002BFAD04FF010232B
:1058F0001222C3F8002200BF174BD3F80034002B4C
:10590000FAD04FF010231222C3F8042200BF124B2A
:10591000D3F80034002BFAD00F4B0022C3F8042533
:1059200000BF0D4BD3F80034002BFAD0FFF7CCFEAC
:10593000FFF7E0FE00BF08BD00C000408C560040ED
:105940004881030000F00040E40E004058020010BF
:105950004096024000ED00E000E001400F4B1B6864
:10596000082B17D10E4B1B68002B01D1012312E02D
:105970000B4B1B68012B01D101230CE0084B1B686A
:10598000022B01D1012306E0054B1B68032B01D13B
:10599000012300E001231846704700BF30010010CA
:1059A000340100100F4B1B68082B17D10E4B1B68DE
:1059B000002B01D1012312E00B4B1B68012B01D1FD
:1059C00001230CE0084B1B68022B01D1012306E0E8
:1059D000054B1B68032B01D1012300E0012318466E
:1059E000704700BF3001001034010010064B1B68E7
:1059F000082B05D1054B1B68002B01D1012300E0CA
:105A000000231846704700BF300100103401001019
:105A1000064B1B68082B05D1054B1B68002B01D1D9
:105A2000012300E000231846704700BF300100103A
:105A300034010010064B1B68082B05D1054B1B6871
:105A4000002B01D1012300E000231846704700BF5E
:105A50003001001034010010064B1B68082B05D1E3
:105A6000054B1B68002B01D1012300E000231846E1
:105A7000704700BF30010010340100100F4B1B684D
:105A8000082B17D10E4B1B68002B01D1012312E00C
:105A90000B4B1B68012B01D101230CE0084B1B6849
:105AA000022B01D1012306E0054B1B68032B01D11A
:105AB000012300E001231846704700BF30010010A9
:105AC0003401001000B583B06B46184603F06CFE3D
:105AD00003468DF807309DF8073083F00103DBB2F1
