:1000000000000420750300005D0300005F03000092
:1000100061030000630300006503000000000000AE
:100020000000000000000000000000006703000066
:1000300069030000000000006B0300006D03000076
:10004000356100004D3D0000711500006F03000098
:100050006F0300006F030000C91300006F0300006E
:10006000D9200000ED200000012100006F030000F6
:100070006F0300006F0300006F0300006F030000B8
:100080006F030000416600006F0300006F03000073
:100090006F0300006F0300006F0300006F03000098
:1000A0006F0300006F0300001521000029210000EC
:1000B0006F0300006F03000000000000000000005C
:1000C0006F0300006F0300006F0300006F03000068
:1000D000455F00006F0300006F0300006F03000026
:1000E000E51B00006F0300006F030000000000002C
:1000F000000000006F030000000000006F0300001C
:1001000000000000000000000000000000000000EF
:1001100000000000000000000000000000000000DF
:1001200000000000000000000000000000000000CF
:1001300000000000000000000000000000000000BF
:1001400000000000000000000000000000000000AF
:10015000000000000000000000000000000000009F
:10016000000000000000000000000000000000008F
:10017000000000000000000000000000000000007F
:10018000000000000000000000000000000000006F
:10019000000000000000000000000000000000005F
:1001A000000000000000000000000000000000004F
:1001B000000000000000000000000000000000003F
:1001C000000000000000000000000000000000002F
:1001D000000000000000000000000000000000001F
:1001E000000000000000000000000000000000000F
:1001F00000000000000000000000000000000000FF
:10020000354936480A1A02D0072291438D463449AF
:1002100034480A1A06D00722914381F30988022242
:1002200082F3148830483149314A00F044F83148AB
:100230003149324A00F03FF831483249324A00F041
:100240003AF832483249334A00F035F832483349F7
:10025000334A00F030F833483349344A00F02BF881
:1002600033483449344A00F026F8344834490022EF
:1002700000F02CF833483449002200F027F83348C6
:100280003349091A082902DB002202604160314A21
:1002900090471F481F49884205D00268043003B4C4
:1002A000904703BCF7E700208646EC46002000217B
:1002B000294A9047FEE7884207D0521A05D00378B2
:1002C00001300B700131013AF9D17047884202D0F8
:1002D00002700130FAE770470000042000E00320BC
:1002E00000000420000004208083000000000020A3
:1002F00084000020D0030000D0030000E87100005B
:1003000080830000000000200000002044720000F4
:100310004472000044720000447200004472000005
:100320004472000044720000447200007E830000AA
:100330000484000084000020840000208400002049
:100340005416002054160020541600205416002085
:10035000543600209D030000A1240000FEE7FEE7C4
:10036000FEE7FEE7FEE7FEE7FEE7FEE7FEE7FEE765
:1003700000F002B8FFF7FCBF0F484FF007018843B9
:1003800085460E4880470E48016841F470010160BF
:10039000BFF34F8FBFF36F8FFFF732BF09480A4992
:1003A0000A4A884207D0521A05D0037801300B70F0
:1003B0000131013AF9D1704700000420412A0000C0
:1003C00088ED00E0447200000000002000000020E2
:1003D0007047000007B5044B0093044A402300F027
:1003E00032F803B05DF804FBF10300008500002043
:1003F0002DE9F84388461446B2B10F4B0F4E032542
:10040000002743F00109224608EB0701002002F013
:10041000D1FA0744241A48B933782BB14FF47A4003
:10042000C847013D02D13570BDE8F8830123337020
:10043000002CE8D1F8E700BF5072000084000020D3
:10044000704702F0EBBAF0B595B01D461646084667
:100450000C4606F084FC1A9B0D93CDE90865002537
:100460002B46082205A920460A958DF82C500C959C
:1004700006F09CFC079B0293069B03939DF81430A7
:100480008DF8115003F00302012A1DD1BDF814208C
:10049000059DC3F3C203C2F383168DF81030B2007A
:1004A00008230EA9204606F081FCC5F3952508AB6C
:1004B0000093324602AB0EA9284600F07FFB20468F
:1004C00006F051FC15B0F0BD022AF8D1BDF8165067
:1004D000C3F3C203C5F389158DF810300827082D22
:1004E0002E4628BF08263B4632460EA9204606F077
:1004F0005DFCAD1B08AB02AA31460EA8374400F0E4
:10050000C1FB002DEBD1DAE708B5FFF79AFF0748EA
:10051000042100F0BBFA002803DA0549412006F067
:1005200099F8044B01225A7108BD00BF20720000E7
:100530006472000000000020037813F0040216D05B
:1005400003F00303012B03D0022B09D001207047D5
:100550000A6800880232C0F3831002440A60F5E79B
:100560000B684288023303EB92130B60EEE71046F0
:10057000704700002DE9F04F044687B0861C00202C
:100580000F46154606F03CF8494801683960D0E945
:100590000132134401335B1A824600F21C4700F516
:1005A000836900F21448B3421BD30020002D7AD097
:1005B00004F00F039B0143F0050363F30F00DAF827
:1005C0000020DAF808301340033316444AF82300B9
:1005D0000020CAF8006006F023F8012007B0BDE84B
:1005E000F08F0121384606F065F8484606F07AF8A3
:1005F000404606F077F8DAF80400DAF808B002901E
:1006000000EA0B0003300AEB800002A9FFF794FF19
:10061000029B0246F8B90BEA03010AEB810103F1E0
:10062000020CC8680390013303EA0B0B0AEB8B0B37
:1006300000F003000128DBF80C10CDF808C02AD028
:1006400002280BD01B4901924FF4BF7006F002F84C
:10065000019A93460CE00BEA0300D3E7BDF80E3095
:10066000C3F3891303334FEA114B0CEB930302934B
:10067000404606F03AF810B1029BCAF804305946D9
:10068000384606F017F8DAE901231344DAF80020B7
:1006900001339B1A87E7BDF80C30C3F383134FEA8D
:1006A000114B6344E3E7A40544F0060087E700BF6D
:1006B00098010020E87200000B4B0C48FF2210B597
:1006C0009A600022C3F81824C3E90022C3F8142456
:1006D00083F8202406F0FCFA044610B9044806F01A
:1006E00079FB204610BD00BF980100203072000049
:1006F0006C73000030B50A4C71B10A4A0A49121BEA
:10070000D20800239A4201D1002030BD31F8235095
:10071000854202D00133F5E7034654F83300F4E78D
:10072000E87100002072000000000020094B013930
:1007300003EBC000032909D8DFE801F00A02040630
:100740000420704700797047407970470020704757
:1007500002207047E8710000034BD3E90030C31A50
:1007600058425841704700BF980100202DE9F043DE
:1007700085B0FFF7F1FF0646002840F0F5807B4D7D
:10078000C5F81804BFF34F8F6B68AC680093234023
:10079000033305EB83006946FFF7CEFE009B18B1DB
:1007A000D5F81824002A5FD004EA0302991C01330B
:1007B00005EB8202234005EB8303D268DB680293DA
:1007C00002F00303022B0192009160D1BDF80630C4
:1007D0006748C3F38917502FB84628BF4FF0500819
:1007E00068F38F1308F10801ADF8063006F088FAB7
:1007F0000646002800F0A38006F0B1FA0023082284
:1008000001A9304606F0BEFA009924EA010201323D
:10081000B8EB820F4FEA820332D95FFA88F85BB3F4
:100820002140DCB2A8EB040803315FFA88F9A04646
:10083000504C05EB810108234246304606F0A2FAEF
:1008400034B108F108034A462146304606F09AFAC8
:10085000009B033703EB97070097D5F81834002B5C
:1008600049D1D5F8104459E02A689A428FD86A6075
:10087000304605B0BDE8F0833E491C469946DAE7AC
:100880000C40E11C0823424605EB8101DDE7012B0A
:1008900055D1BDF804303648C3F38311062928BF6B
:1008A000062161F3891302318900ADF8043006F0A6
:1008B00027FA0646002842D006F051FA0023082203
:1008C00001A9304606F05EFA0027BDF80420C2F305
:1008D0008312BB00974203F10803BED200994A1C61
:1008E00021400331009205EB81010422304606F0DD
:1008F00049FA0137E9E7304606F035FAFFF72CFFF1
:1009000080F00100C6B2B3E7E3685B7923B12368E6
:1009100031461B6820469847E3681C68002CF3D1D9
:10092000304606F020FA204605F06AFED5F8183465
:100930000BB9009B6B60002005F072FEDEE7D5F876
:10094000104454B90C4B0D480D49C01AC00800049E
:1009500040F0020000F072F8D0E7236820469B6860
:100960009847E3681C68ECE7002681E798010020BF
:1009700030720000A4010020E87100001072000035
:10098000547300002DE9F74F274D04460F4691465A
:1009900001A901221846D5F808A09846FFF7EAFDFC
:1009A00078B3019E0023B01C434503EB000132D114
:1009B0001E48002105F05BFE80F3100B1C4B1D4A06
:1009C0004FEA14499B1AB9EBD30F04D31A4940F2EA
:1009D000A31005F03FFE731C03EA0A03E40005EBD5
:1009E000830304F0380449EA0B4006EA0A0644F09F
:1009F0000104D860033644EA881343EA872345F8A4
:100A0000263095F820341BB1FFF7B0FE0028FBD14B
:100A100003B0BDE8F08F0AEA010105EB810159F846
:100A20002320CA600133BFE798010020B4050020ED
:100A300020720000E8710000E872000000231A46EE
:100A4000FFF7A0BF07B50123019201AAFFF79AFFA4
:100A500003B05DF804FB07B5CDE9002302236A4625
:100A6000FFF790FF03B05DF804FB7FB5CDE90123EC
:100A7000089B0393099B04930A9B059301AA0523F2
:100A8000FFF780FF07B05DF804FB000030B50F49A9
:100A9000D1F8102403460020144634B9DC682071D4
:100AA0004AB9C1F81034226030BDE4682579854226
:100AB00006D02468F1E7D268116821601360F3E77B
:100AC00001300A28E8D14FF0FF30EDE7980100200F
:100AD000094A38B50123D2F8104482F820341D4663
:100AE00004B938BDE3685D71236820465B689847A8
:100AF000E3681C68F4E700BF9801002007B50346CF
:100B00000846197A052911D05B7A2BB1094A0A499E
:100B1000019005F089FE01980849019005F084FED6
:100B2000019803B05DF804EB05F06CBE002AF8D024
:100B3000F2E700BF787300007D7300009D73000032
:100B400030B5C38885B004460D4633B1144A0092CF
:100B50001449154A284605F067FE217A05291DD05B
:100B6000637A4BB1A088FFF7E1FD104B104953F8B1
:100B70002020284605F058FE227A0E4BA08853F814
:100B8000222003920021FFF7B5FD039A0A4903468C
:100B9000284605B0BDE8304005F046BE05B030BD82
:100BA0007873000088730000807300000C740000EC
:100BB0007D73000030740000A07300002DE9F04345
:100BC00085B01F460C9D002395F80C902B730646AC
:100BD0000C46904629463846FFF7B2FFB8F1060F9B
:100BE00009D8DFE808F00412181F28334000314606
:100BF000284605F019FE002229463846FFF77EFFF9
:100C000085F80C9005B0BDE8F0832268314628468F
:100C100005F00AFEEFE7D4E900233146284605F047
:100C200003FEE8E7A36800933146D4E90023284691
:100C300005F0FAFDDFE7E3680193A368009331460E
:100C4000D4E90023284605F0EFFDD4E72369029399
:100C5000E3680193A36800933146D4E90023284652
:100C600005F0E2FDC7E76369039323690293E36834
:100C70000193A36800933146D4E90023284605F088
:100C8000D3FDB8E708292DE9F74F80460E461746F1
:100C90001C463CD8002593F80C901D73194610464D
:100CA000FFF74EFFDFF888A0DFF888B0AE4231D9F9
:100CB00018F805205946204605F0B6FD0135082DE7
:100CC000F4D11949194DDFF870A0204605F0ACFDAC
:100CD0004FF0000B5E4522D918F80B207E2A05D86C
:100CE0001046019206F094F9019A00B92E2251465D
:100CF000204605F099FD0BF1010BBBF1080FE9D17E
:100D0000012221463846FFF7F9FE84F80C9003B023
:100D1000BDE8F08F5146204605F086FDCEE7294616
:100D2000204605F081FDE6E7B4730000B2730000D1
:100D3000B0730000AA730000B673000003682F2B85
:100D400010B5044604D9074940F2CD1005F082FCE5
:100D500023681F2B83BF03F01F03034823604FF05A
:100D6000A04010BD4474000000030050032813B5D8
:100D7000044603D90849412005F06CFC074B01A843
:100D80001B5D0193FFF7DAFF019A01239340C0F83E
:100D90000C3502B010BD00BF75740000D0740000A7
:100DA000032813B5044603D90849472005F052FC2F
:100DB000074B01A81B5D0193FFF7C0FF019A0123B8
:100DC0009340C0F8083502B010BD00BF7574000034
:100DD000D074000008B50020FFF7E2FF0120FFF704
:100DE000DFFF0220FFF7DCFFBDE808400320FFF72C
:100DF000D7BF0000F7B5C207044612D5134E002531
:100E0000032716F8013B019301A8FFF797FF019B09
:100E1000013503F5E073042D40F82370F1D1FFF79D
:100E2000D9FFA30710D50A4D00240C2615F8013B65
:100E3000019301A8FFF782FF019B013403F5E073E2
:100E4000042C40F82360F1D103B0F0BDD074000051
:100E5000CC7400001FB503788DF80030436801930F
:100E600083688DF80830C368054A0393054B6846CC
:100E700053F8213052F82110984705B05DF804FB73
:100E8000540600205C0600201FB503788DF8003062
:100E90004368019383688DF80830C368054A03935B
:100EA000054B684653F8213052F82110984705B099
:100EB0005DF804FB540600205C0600202DE9F0419B
:100EC0001E4B90F8008043F828201D4B1646B8F1C1
:100ED000010F0A6943F8282088B007460C4605D15F
:100EE0004B7F1BB91749762005F0B4FBDFF860C0D3
:100EF000637F0CF808300FCC6D460FC594E80F00E7
:100F000085E80F003B78CDF810801CF8033053B112
:100F1000002E0D4A694608BF3246381D00F06AFEB1
:100F200008B0BDE8F081002E084A694608BF324685
:100F300007F10C0000F042FCF2E700BF5C06002065
:100F400054060020D4740000550E0000890E0000E5
:100F50006406002000F1804000F5C040002382B00C
:100F6000036003680193019B02B07047054B4FF08B
:100F7000FF32072843F8202084BFC01880F858208B
:100F8000704700BF6806002003682F2B10B5044689
:100F900004D9074940F2CD1005F05CFB23681F2BF4
:100FA00083BF03F01F03034823604FF0A04010BD30
:100FB000447400000003005013B5019001A80C46D2
:100FC000FFF7E2FF019B00EB8300D0F8003723F42A
:100FD0004033C0F80037D0F8003743EA0443C0F884
:100FE000003702B010BD00004FF0A043D3F8103519
:100FF0000360024BD3F81035436070470003005084
:1010000010B5174C94F86A3043BB04F1300330211B
:10101000FF22013911F0FF0103F8012BF9D1C8B209
:10102000FFF7A4FF01310C29F9D1062200210D4858
:1010300006F055F80C4BC02283F8062340221A60B4
:101040004FF4BE70FFF786FF084B4FF00042C3F825
:101050000423012384F86A30002010BD0820FCE737
:1010600068060020CC06002000E100E0006000409F
:101070002F2873B504460D4604D93F494FF49870A4
:1010800005F0E8FA3D4E96F86A30012B04D03A4953
:1010900040F2311005F0DEFA25B937494FF4997066
:1010A00005F0D8FA331993F93020013261D1AA78CA
:1010B000002A52D0314B002253F8041B013146D193
:1010C000331983F83020002346F82230920002F1D1
:1010D000804202F5C0422B78D2F81005697820F4DE
:1010E00099101B04090520F4F85001F4801103F451
:1010F0004033C2F810050B432102D2F8100501F469
:101100007C510B430343C2F810356D780194012DD7
:1011100001A826D1FFF738FF019B9D40C0F8085574
:1011200001A80194FFF730FF019B154903F5E07317
:10113000032240F8232024FA02F2012304F00700DE
:1011400003FA00F08B5C18438854002003E001325E
:10115000082AB1D1042002B070BDFE2283F83020ED
:10116000D3E7FFF711FF019A01239340C0F80C3534
:10117000D6E70820EFE700BF3775000068060020BB
:10118000CC0600202F282DE9F34105460F46904656
:1011900004D93E4940F2072005F05CFA3C4E731931
:1011A00093F93030002B6FDABB78C3F34003002B88
:1011B0000BBF082400240C220822944203D10420EF
:1011C00002B0BDE8F08156F82410013143D1721904
:1011D00046F8248082F8304013B9331983F8585008
:1011E000BB785A0717D4D90737D501A80195FFF75F
:1011F000CBFE019B00EB8300D0F8003723F0020305
:10120000C0F800372349EA0805F0070001238340AE
:10121000885C03438B54BB783A7813F002032AD0DE
:10122000A40004F1804404F5C0442D02D4F8103524
:1012300023F44F3323F44073C4F810351204D4F868
:10124000103505F47C5502F4403215431D43C4F8B3
:1012500010550020B4E70134AFE701A897F80180EA
:101260000195FFF791FE019B03F5E0734FEA8802B9
:1012700040F82320C6E7083C344494F8605045EA1F
:10128000821284F86020E4E7082099E737750000AF
:1012900068060020CC0600202F28F7B504460E462D
:1012A00004D9294940F2372005F0D4F9274D2B19EC
:1012B00093F93030002B04DA23494FF40E7005F017
:1012C000C9F92F1997F93020072A1ADD2A4492F814
:1012D00058309B09032B0FD101A80194FFF754FE4E
:1012E000019BD0F81015D94001F0010102312046D0
:1012F000FFF762FE03B0F0BD012B0CBF02210321FA
:10130000F5E7D3B2072BF5D8930003F1804303F53B
:10131000C04302F14000D3F81015800041F00101F4
:10132000C3F8101580B2FFF715FE002EE2D097F932
:10133000303055F82330002BDCD0012303FA02F2C1
:10134000034BC3F80423D5E7377500006806002077
:10135000006000402F2838B5044604D917494FF4DF
:10136000197005F077F9164D2A1992F93020002AE4
:1013700004DA124940F2652005F06CF92B1993F953
:101380003020072A05DD20460021BDE83840FFF760
:1013900013BED3B2072B10D8930003F1804303F59B
:1013A000C043D3F8101521F00101C3F81015012333
:1013B00003FA02F2034BC3F8082338BD3775000067
:1013C00068060020006000402DE9F04F00248BB03B
:1013D000CDE90244624D4FF48072012102F1804355
:1013E00003F5C04390B21B68012B06D1D5F8043336
:1013F0000B4202D0FFF7AEFD0C430432B2F5907FF2
:101400004FEA4101EAD1574B1B68012B08D14FF439
:10141000BE70FFF79FFD02A844F00044FFF7E4FD13
:1014200014F0FF0F1AD0504F00250126344210D07F
:10143000AB0003F1804303F5C043D3F81005D3F8A4
:10144000101557F8253023B1C1F30141C0F3052031
:1014500098470135082D4FEA4606E7D1002C7BDA84
:1014600004AF002304937B604FF0FF33CDE90633D4
:10147000DFF8F4903D4B009300263546009A12F9B0
:10148000013B00925A1C51D0C3F3C2000121DAB2D1
:1014900003F03F0B03F0070301FA03F40AAB19183A
:1014A00011F8103C234241D04FEA921A09EB0B028B
:1014B00092F9302059F82280B8F1000F09D1BAF121
:1014C000030F33D117F800C04CEA040C07F800C032
:1014D00002E0BAF1030FF5D008A80191CDF820B0D1
:1014E000FFF752FD089B019903F5E07C11F8201CE1
:1014F00050F82C002142C0F3014006D0022815D13B
:10150000BAF1030F0CD1514605E003280ED1BAF110
:10151000030F05D102215846FFF74EFD0135EDB20C
:10152000B8F1000F02D051465846C0470136042E8C
:10153000A4D18DB108A8FFF757FD029B089A9A42E3
:10154000099B02D103998B4206D002920393049A1D
:10155000059B069207938DE70BB0BDE8F08F00BFA7
:10156000006000407C61004068060020C806002042
:1015700010B5054C22681AB90449512005F06AF8E3
:101580002368BDE810401847D4060020A17500006C
:1015900038B50D4628B90C49772005F05BF80020D6
:1015A00038BD0A4B9842FAD1002005F029F8084BC3
:1015B0001C7914B901221D601A71002005F030F861
:1015C000002CECD01120EBE7A175000000200040BA
:1015D000D40600200023435082B043580193019B5E
:1015E00002B070470A4610B54FF48E71FFF7F2FF54
:1015F000136A9168C95C136A01331362C0F81C1541
:1016000010BD000003682F2B10B5044604D907490C
:1016100040F2CD1005F01EF823681F2B83BF03F0A6
:101620001F03034823604FF0A04010BD4474000026
:10163000000300508B690A4610B54FF4847123B93A
:10164000FFF7C8FFD0F8183510BDFFF7C3FF536A86
:10165000D168D0F81805C854536A01335362F3E7D0
:101660001FB501238DF80030044BCDE90110D3E9FB
:1016700000126846904705B05DF804FBDC060020C8
:1016800030B54C48D0F8043313F4007F85B00546DC
:101690004DD0D0F82431002B49D04FF49271FFF790
:1016A00099FF4FF40173C0F80833434B93F8292096
:1016B0000AB9012242603F4902228DF80020D1F888
:1016C0008024C1F8802403929A690292DA68019218
:1016D0000022C3E906226846D3E900129047354844
:1016E000D0F81C315BB134494A690B6A9A420A4608
:1016F0004AD991F82830002B46D1FFF773FF2D48C7
:10170000D0F844318BB14FF4A271FFF763FF2A4B3D
:1017100093F829200AB1012202609A692AB10022B5
:10172000586AD9689A61FFF79BFF05B030BDD5F8BC
:1017300004335B07D3D5D5F80831002BCFD01E4C2E
:101740001C482146FFF776FF636AA2699A42234646
:10175000C5D1E269E1684AB12369E3600023606AA8
:10176000A261E3616362FFF77BFFB8E794F8292089
:101770000AB901226A600F4A4FF40170C2F80803E7
:101780000022586A9A61EEE70A484FF48E71FFF71B
:1017900021FF5369002BB2D0516902910023916857
:1017A0008DF80030019153616846D2E900139847E3
:1017B000A5E700BF00200040DC0600202DE9F3472C
:1017C000054691460C4619B96A49AA2004F042FF21
:1017D000694B2E792C2202FB0632984692F82A2079
:1017E000002A40F0C28065492868FFF7D1FE07460D
:1017F000002840F0BC8023685A1C13D001A8019334
:10180000FFF700FF019A01239340C0F808352368D1
:10181000019301A8FFF7F6FE019B03F5E073032295
:1018200040F823206368581C09D001A80193FFF7F2
:10183000E9FE019B03F5E073002240F823202B68AA
:10184000A269C3F82425217D627D0A43C3F86C2573
:10185000D4E900020129C3F81425C3F80C052AD1E4
:10186000A368591C09D001A80193FFF7CBFE019B87
:1018700003F5E073002240F82320E3685A1C13D0DC
:1018800001A80193FFF7BEFE019A01239340C0F81F
:101890000835E368019301A8FFF7B4FE019B03F547
:1018A000E073032240F82320D4E902212B68C3F817
:1018B0000815C3F810252C23734308EB0302C2F864
:1018C0000490226948F80320B9F1000F39D0286844
:1018D00094F81C904FF48E71FFF77CFE28684FF44B
:1018E000A271FFF777FE2C68254AC4F80423B9F1EA
:1018F000070F4FEA143A44F3073403D921496B2008
:1019000004F0A8FE002CACBF04F160431E4B4FEA6C
:101910004919B8BF0AF00F0A5FFA89F9AABF03F59F
:10192000614303F80A9083F800932B68012143F385
:101930000732C3F3043301FA03F35209134941F8A0
:1019400022302B680422C3F800252C2303FB0683D6
:101950000022C3E9062283F829205A61012283F874
:101960002A20384602B0BDE8F0870827F9E711279A
:10197000F7E700BF09760000DC06002081160000B2
:10198000800002006A76000014ED00E000E100E053
:101990002DE9F84F344E077991462C2202FB07625D
:1019A000054692F82A20012A884604D02F494FF490
:1019B0008C7004F04FFEB8F1000F04D12B4940F2B7
:1019C000191004F047FEB9F1000F04D127494FF474
:1019D0008D7004F03FFE2B792C2404FB0363D3F8B5
:1019E00014B0BBF1000F3BD107FB046A2868CAF8AA
:1019F00014904FF48E71CAF820B0CAF808808AF8A3
:101A000028B0FFF7E7FD2868012383605146FFF700
:101A1000E9FDDAF8043054468BB92868DAF8148006
:101A2000236A984511D82B68D3F81C21002AFBD0D3
:101A30000122DA602C2303FB076300225A61584617
:101A4000BDE8F88F94F828303BB9D0F81C31002B52
:101A5000F8D05146FFF7C6FDE2E74FF00F0BE9E77C
:101A60004FF0110BEBE700BFDC0600200976000009
:101A70000023435082B043580193019B02B070474A
:101A80001FB50123CDE901218DF80030D0E9001305
:101A90006846984705B05DF804FB000003682F2BEB
:101AA00010B5044604D9074940F2CD1004F0D2FD28
:101AB00023681F2B83BF03F01F03034823604FF0ED
:101AC000A04010BD44740000000300507FB5D0F862
:101AD000246105460C46002E5CD04FF49271FFF74E
:101AE000C7FF02238DF80030D0F88034C0F880346E
:101AF0000393D0F83C350293E36801930023C4E9D3
:101B000006336846D4E900139847D5F844317BB1D1
:101B10004FF4A2712846FFF7ABFFA36943B100233E
:101B2000C4E90633D5F83C15E2682046FFF7A8FF64
:101B3000D5F82031ABB14FF490712846FFF798FFEC
:101B40000123EB60636963B1D5F84C250292002351
:101B5000A2688DF8003063610192D4E900136846F1
:101B60009847D5F858319BB14FF4AC712846FFF730
:101B70007FFF636963B1D5F84C2502920023A26808
:101B80008DF8003063610192D4E9001368469847EC
:101B900004B070BDD0F81031002BB6D04FF488716E
:101BA000FFF766FFA169D0F83C359942ADD1E369F2
:101BB000E2686BB1D0F8000220F02000C5F8000206
:101BC000A3612369E360E6612046FFF759FF9CE7C4
:101BD000A361F9E701490248FFF778BF0807002031
:101BE0000020004001490248FFF770BF2C07002089
:101BF000008002402DE9F347054691460C4619B98D
:101C00007149CF2004F026FD704A2E79242303FB6E
:101C10000623904693F82030002B40F0D1806C4B87
:101C2000286853F82610FFF7B3FC0746002840F059
:101C3000C98023685A1C13D001A80193FFF72EFF17
:101C4000019A01239340C0F808352368019301A845
:101C5000FFF724FF019B03F5E073032240F82320E4
:101C60006368581C09D001A80193FFF717FF019B77
:101C700003F5E073002240F823202B68A269C3F823
:101C80002425217D627D0A43C3F86C25D4E9002018
:101C90000129C3F80C25C3F814052AD1A368591CDF
:101CA00009D001A80193FFF7F9FE019B03F5E0734A
:101CB000002240F82320E3685A1C13D001A80193A6
:101CC000FFF7ECFE019A01239340C0F80835E36862
:101CD000019301A8FFF7E2FE019B03F5E0730322E5
:101CE00040F82320D4E902212B68C3F80815C3F873
:101CF00010252423734308EB0302C2F804902269E1
:101D000048F80320B9F1000F48D0286894F81C90D7
:101D10004FF48871FFF7ACFE28684FF49071FFF71D
:101D2000A7FE28684FF49271FFF7A2FE28684FF4CF
:101D3000A271FFF79DFE28684FF4AC71FFF798FE83
:101D40002C68244AC4F80423B9F1070F4FEA143A67
:101D500044F3073403D920496B2004F07BFC002CAA
:101D6000ACBF04F160431D4B4FEA4919B8BF0AF0FC
:101D70000F0A5FFA89F9AABF03F5614303F80A90D5
:101D800083F800932B68012143F30732C3F3043334
:101D900001FA03F35209124941F822302B68082254
:101DA000C3F80025242303FB06860023C6E9063377
:101DB0007361012386F82030384602B0BDE8F08711
:101DC0000827F9E71127F7E7A176000008070020A8
:101DD0000C770000100342006A76000014ED00E06A
:101DE00000E100E02DE9F047384F90F8048024230B
:101DF00003FB0873064693F82030012B8946924670
:101E000004D0334940F22D1004F024FCB9F1000F46
:101E100004D12F494FF4977004F01CFCBAF1000F65
:101E200004D12B4940F22F1004F014FC3379012B1C
:101E300002D8BAF5803F04D325494FF4987004F0D6
:101E400009FC09F06043B3F1005F3AD133792425EE
:101E500005FB03735C69002C35D105FB0875306800
:101E6000C5F814A04FF49071C5F80890FFF700FE74
:101E70004FF4AC713068FFF7FBFD33686A69A968FD
:101E8000C3F84415C3F8482501229A606A68AAB9C4
:101E9000D3F82021D3F858411AB9002CF8D00F24D8
:101EA00007E0002CFBD10122DA60D3F85821002A88
:101EB000FBD0242303FB087700237B612046BDE889
:101EC000F0871024FAE71124F8E700BF0807002084
:101ED000A17600002DE9F347002406460F46904600
:101EE00000F5A0754FF48039A2462B688BB1D6F867
:101EF000043309FA04F21A420BD0C5F800A02B688B
:101F00000193A000019B00F5A07398B2D7E90031BE
:101F100098470134A04505F10405E6D102B0BDE8BB
:101F2000F08700002DE9F347064690F80480144638
:101F30000D4619B94B494A2004F08CFB1CB949499C
:101F40004B2004F087FB484A0C2303FB08239146EF
:101F50001B7A002B40F084803368444A93420FD0B0
:101F600002F5805293420BD002F58052934207D083
:101F700002F58032934203D002F58052934202D19F
:101F8000AB78032B03D937495F2004F063FB0C23A4
:101F900003FB08F309EB030249F803406B68536045
:101FA0007079336800221446D1B288424FD8EF7856
:101FB000072F4FEA133A43F3073403D92C496B2018
:101FC00004F048FB002CACBF04F16043294B2A4CC1
:101FD0004FEA4717B8BF0AF00F0AFFB2AABF03F5CE
:101FE000614303F80A7083F80073336843F30732E0
:101FF0005209C3F30430012101FA00F044F8220031
:10200000D3F804056A7820F0030002F003020243CB
:10201000C3F80425D3F80805AA7820F0030002F0DD
:1020200003020243C3F80825D3F810052A7820F0EC
:102030000F0002F00F020243C3F810250C2303FB2C
:102040000898002088F8081002B0BDE8F0879100D9
:1020500001F5A07101325C50595801910199A3E733
:102060000820F1E7147700005007002000800040AE
:102070006A76000014ED00E000E100E037B54FF4AF
:10208000803400688C407BB18B0003F5A073002581
:10209000C550C3580193019BC0F8044301F5A871D2
:1020A00040F8212003B030BDC0F80843F6E770B413
:1020B000046840F20116D4F800528E4025EA060565
:1020C000C4F80052D4F800522B43C4F800329DF8F3
:1020D0000C3070BCFFF7D2BF024903480422FFF75F
:1020E000F9BE00BF500700200080004002490348AD
:1020F0000422FFF7EFBE00BF5C0700200090004005
:10210000024903480422FFF7E5BE00BF680700202C
:1021100000A00040024903480622FFF7DBBE00BFD3
:102120007407002000A00140024903480622FFF77F
:10213000D1BE00BF8007002000B001407047000002
:10214000084B09481B6810B50122084C1A64D3F8E3
:1021500040152378C9B2184404F0C1FF2378013335
:10216000237010BD08000020020800208E07002008
:102170000A4B0B481B6810B501220A4C5A64D3F86D
:1021800044152378C9B2184404F0A9FF2378064AFD
:102190000133237013880133138010BD0800002021
:1021A0008F0700208E070020720800202F2810B50E
:1021B000044614D90C4940F2CD1004F04BFA0B4BF5
:1021C00004F01F04D3F80425012000FA04F424EAE3
:1021D00002011440C3F80815C3F80C4510BD1F28B0
:1021E000EDD84FF0A043EDE7447400000003005029
:1021F00070B50F4B0F4C1D88238823EAC5031BB213
:102200002E0179B133439BB21BB269016AB10B4312
:102210009BB243EA85131BB22380437023881B0AB9
:10222000837070BD23EA0603EDE723EA0103EFE7BD
:102230002400002022000020182813B54ED005D815
:102240000B2810D00C282CD002B010BD1928FBD1BF
:10225000274B1B68012202205A60DA6002B0BDE8F9
:102260001040FEF79DBD234B23481B6823490124E2
:102270001C64D3F84025224BC01AC008000440F06B
:102280000300FEF7DFFB1F4822462146FFF7B0FFA1
:102290001D4B00211B78837200F0EEFC1B4B1C7061
:1022A000D2E71B4B17481B68012200245A60DA60F2
:1022B000164B21461C70FFF79BFF134B8DF8074010
:1022C0001B78837204460021204600F0D5FC8DF86F
:1022D00007009DF80730002BF5D0B5E7044B1B68CD
:1022E000012202201A6002B0BDE81040FEF73EBD98
:1022F0001000002018000020107200007C77000001
:10230000E8710000F50700208D070020F407002089
:1023100008000020054B06491B78142213B105481C
:10232000FFF760BD0448FFF733BB00BF6406002021
:1023300075080020247900002C7900002DE9F04375
:10234000314A85B01378002BFCD0304A304C1378DA
:10235000304D3149314E0133DBB21370E3706322EB
:102360002B78A37204F10B0004F090FE642200218C
:10237000294804F0B4FE00232B70294B294DA27A82
:102380002949ED1AED08A37B02932D04637B019389
:1023900045F00305237B00932846E37AFEF765FBAF
:1023A000A04606F103090021404600F065FC1F4BE2
:1023B0001F4F18701B780BB300233B701D4B1B780D
:1023C00013B12520FFF7F2FE1B4B1B78B3B11B495D
:1023D0002846FEF733FBE378337001231849737006
:1023E0001122A37AB370484604F050FEFFF792FF23
:1023F00020B1144A4FF4D77104F07CF83B78002BDD
:10240000D1D105B0BDE8F0838C0700208D070020F6
:10241000020800208E0700208F070020750800208A
:10242000E87100001072000092770000740800202C
:10243000260000202000002021000020A1770000BD
:102440000D080020B777000010B50478DCB914221D
:10245000FF210D4804F043FE0C4B0D480D49C01AF6
:10246000C008000440F00300FEF7E8FA0A4B1A78AF
:102470004AB11C70FFF74EFF28B1BDE81040074A73
:10248000862104F037B810BD75080020E8710000FF
:102490001072000029780000F3070020B7770000D1
:1024A00000B5AA218BB0A948662204F018FE4FF4AB
:1024B00080410020FEF700F918B1A54AA12104F0DF
:1024C00019F8FEF721F80120FEF794FCFEF798FDBD
:1024D00018B19F4AE52104F00DF89E4B04AD1A880F
:1024E0009B78ADF81020AB709B4A032329460B2044
:1024F0008DF81130FEF746FE18B1954AEB2103F036
:10250000F9FF01210B20FEF7C7FE934A29460C2054
:10251000FEF738FE18B18E4AEF2103F0EBFF0121E0
:102520000C20FEF7B9FE8C4A29461820FEF72AFE39
:1025300018B1874AF32103F0DDFF01211820FEF7CF
:10254000ABFE854A29461920FEF71CFE18B1804AC9
:10255000F72103F0CFFF01211920FEF79DFE7F4BED
:102560007F4A93E80300032385E803008DF81230C7
:102570007C48042329468DF81030FFF7D3FC20B1A6
:10258000734A4FF4DD7103F0B5FF01238DF812306B
:10259000754A7648092329468DF81030FFF7C2FCAA
:1025A00020B16B4A40F2BF1103F0A4FF704B714C95
:1025B0007149E41AE408240444F003040126DA22F1
:1025C0002046FEF73FFA694800963346DA2200219A
:1025D000FFF76DFD0923694A69488DF812602946A5
:1025E0008DF81030FFF79EFC20B1594A40F2C71118
:1025F00003F080FF6248009601231F220021FFF7AD
:1026000056FD604B1A88ADF80C209B785E4A8DF819
:102610000E3003A92120FEF7B5FD20B14C4A4FF43E
:10262000EE7103F067FF0123ADF810302946002357
:1026300025208DF81230FEF71BFD29462620FEF7D7
:1026400017FD524A52495348FEF738FC18B1404A28
:102650009B2103F04FFF01212120FEF71DFE00F01A
:10266000E3FA4DF6DA6303A8ADF80C3000F0DAFABD
:10267000BDF80C30ADF810304FF44153ADF81230C6
:102680002846454B059300F0CBFA9DF816204349A8
:102690009DF817302046FEF7DEF94BF6BA2303A863
:1026A000ADF80C3000F0BAFA3D492046FEF7C6F905
:1026B000002000F0B1FA002220463A49FEF7C2F9A4
:1026C00017230522CDE90432374B0793A3F57F0387
:1026D0000893284641F20F03ADF8243003F082FE40
:1026E00018B932492046FEF7A9F93148314D702317
:1026F000002201210370FFF77BFDBA2303714371B0
:10270000DB2383710026DE23DA22C3710272437257
:102710000146C6700A22284604F0B8FC01220D23A7
:10272000114628462B70FFF763FD3046FEF71EFB6F
:102730000C4B21491B6801221A602046FEF77EF9E6
:10274000FEF714F80028FBD130BFF9E70C08002091
:10275000B7770000107900003922000014790000DA
:102760003D210000180000203D230000080000204B
:10277000E871000010720000317800004121000073
:10278000100000201C790000712100004924000085
:1027900028000020207900002010BABA41780000FB
:1027A0007178000086780000010123079C78000002
:1027B00002080020F5070020AD780000254B01221B
:1027C00070B51A70244B1B780D4613B12620FFF705
:1027D000EDFC224C224BE41AE408240444F00304E8
:1027E0009DB1204B204E1D78BDB120492046FEF7FB
:1027F00025F91F4B1B6801251D6029462120FEF786
:102800004BFD2846FEF7B2FA357020461949FEF70F
:1028100015F9BDE8704000F02CBA17492046FEF7C4
:102820000DF92120FEF796FD0120FEF7B9FA134BB2
:10283000134A1B8813701B0A35705370FFF76AFD2B
:1028400020B1104A40F21B2103F054FE0E4B01222E
:102850001A70DAE726000020200000201072000025
:10286000E8710000F40700208C070020C778000002
:1028700008000020EA780000D878000072080020E4
:1028800075080020B7770000F30700200448054BC7
:102890000549C01AC008000440F00300FEF7CEB896
:1028A00010720000E8710000FB7800000369C16845
:1028B0008B429DBF8268D21802F1FF3203F1FF33D1
:1028C00094BF501A581A70472DE9F843D0E9029482
:1028D0000546A9EB04084068904520440F4614447F
:1028E00004D904F0D3FBEC60BDE8F8834246A4EBC6
:1028F000090404F0CBFB6868224607EB0801F0E707
:102900002DE9F843C5680646894617464FF000088A
:102910003469B3687068A54228BFE418013C621BA3
:102920005C1BBC4228BF3C46944228BF1446494623
:102930002844224604F0AAFBB3682544AB4208BFF2
:1029400000253F1BA044A144F560E1D14046BDE80D
:10295000F883000010B5114C114AA2610223C4E9AA
:102960000433104BE361A2644FF400730E4A0F4925
:102970002362E26400231022E01DA3626362E3622B
:10298000A3656365E365226504F0DCFB0849204626
:1029900004F0D8FB2023A37110BD00BF8C080020D9
:1029A0003479000014090020040900203D7900005A
:1029B00041790000F8B5184C182300FB033503FBE0
:1029C00000402544C46A012C0F4616460FD0022C45
:1029D0001AD0F4B92846FFF769FF864205D8324677
:1029E00039462846FFF770FF34462046F8BD284692
:1029F000FFF75CFF8642344628BF0446224639462C
:102A00002846FFF761FFF0E72846BDE8F840FFF7EA
:102A100077BF0024E9E700BF8C080020FFF79ABFCA
:102A2000054B1B68082B01BF044B1868B0FA80F0F7
:102A3000400918BF00207047300100103401001019
:102A400008B54FF080430022C3F80C21C3F81021D1
:102A5000C3F838254FF0805203F54043D2F80414F0
:102A6000C3F82015D2F80814C3F82415D2F80C14B2
:102A7000C3F82815D2F81014C3F82C15D2F8141482
:102A8000C3F83015D2F81814C3F83415D2F81C1452
:102A9000C3F84015D2F82014C3F84415D2F8241412
:102AA000C3F84815D2F82814C3F84C15D2F82C14E2
:102AB000C3F85015D2F83014C3F85415D2F83414B2
:102AC000C3F86015D2F83814C3F86415D2F83C1472
:102AD000C3F86815D2F84014C3F86C15D2F8442432
:102AE000C3F87025FFF79CFF10B1384B384A1A60C5
:102AF000FFF796FF18B1374BFB22C3F81825FFF7F5
:102B00008FFF48B13449354B0A681B6822F00F0229
:102B100003F00F0313430B60FFF782FF18B1304B34
:102B20004FF400721A604FF08043D3F80024D207AC
:102B300044BF6FF00102C3F800242A4AD2F888305B
:102B400043F47003C2F88830BFF34F8FBFF36F8F29
:102B50004FF01023D3F80022002A03DBD3F804320D
:102B6000002B2FDA204B0122C3F80425D3F80024D0
:102B7000002AFBD04FF010221221C2F80012D3F825
:102B80000024002AFBD04FF010231222C3F80422A5
:102B9000154B1A46D3F800140029FBD00021C3F8C6
:102BA0000415D2F80034002BFBD0BFF34F8F0D4932
:102BB0000E4BCA6802F4E0621343CB60BFF34F8F41
:102BC00000BFFDE70A4B0B4A1A6008BD8C56004057
:102BD0004881030000F00040E40E0040580200105D
:102BE0004096024000ED00E000E001400400FA05DC
:102BF000480000200090D00307B501A801F02AFF8B
:102C000020B90190019803B05DF804FB019B002BF3
:102C1000F8D101230193F5E701F040BE01F048BE71
:102C200001F052BE01F05CBE08B502F00DFA00F0F2
:102C30007BFF03F045FA01F035FD01F0C5FD02F020
:102C400005FF03F051F801F0C1FD02F010FF03F0A1
:102C5000D3F902F010FF02F083FD02F015FD01F040
:102C60008BFE03F0D9F901F0A7FEBDE8084002F0A1
:102C700067BE012002F000BF07B50B4600210246E7
:102C8000CDE90011084602F0FBFE03B05DF804FB3D
:102C9000704702F0FDBE13B50446CDE90021FFF7F1
:102CA000ABFFDDE9002103462046FFF7F2FF02B04B
:102CB00010BD70477047704770477047704700F10C
:102CC000804000F58050002382B0036003680193C8
:102CD000019B02B070470000034B186808B190F8E0
:102CE000800000F001007047240B002008B5FFF7BA
:102CF000F3FF08B1014B186808BD00BF240B00208A
:102D000000BF00BF00BF00BF00BF00BF7047000092
:102D1000134B144AC3F8482500F1804000F5805059
:102D2000C3F84C0521B102F5FD424832C3F82C2905
:102D30000D4AC3F8402502F5AF3202F59672C3F88A
:102D4000442529B1D3F8002842F08002C3F80028B6
:102D5000034B8022C3F804254022C3F804257047A2
:102D600000F001403C71014010110040034B1B7802
:102D70001BB1034B1022C3F8082370471D0B002022
:102D80000010004010B5044602F0D0FCB0F5C07F42
:102D90000B4A12D3C009811EB1EBD41F4FEAD413E2
:102DA00096BFA4EBC1140024C31E1460054AC3F3EC
:102DB0001403C2F86436012010BD14600020FBE744
:102DC000180B00200010004013B501A801F090FD81
:102DD0009DF805009DF8044001F0C6FD9DF8073000
:102DE0009DF806201B0643EA0243234343EA0020E2
:102DF000024BC3F86C0602B010BD00BF00100040CB
:102E000000EB800010B540F6C41300F62E149C426F
:102E100007D90E4940F20A4003F01CFCA4F51664E1
:102E20000AE040F637139C420AD9B4F5166FF5D282
:102E3000A4F6381444F48074054BC3F8084510BD5B
:102E4000024940F20D4003F005FCF1E7487900002B
:102E50000010004038B5114C114901222260D1F810
:102E6000002222F44072C1F800220E4A1278042A8D
:102E70000546D1B20AD005290DD00123236025B122
:102E8000094B4FF48072C3F8082538BD074908483C
:102E900003F044FAF1E707480021F9E710900040F9
:102EA000009000401E0B002000F001409C790000C3
:102EB0007C7900008C79000008B50A48002103F0F5
:102EC00047FA094B01221A60084AD2F8003223F46B
:102ED0008073C2F80032064B4FF48072C3F80825A5
:102EE00008BD00BF7C7900001090004000900040B9
:102EF00000F0014008B501F091FDBDE80840002058
:102F000002F034BC08B5054BD3F8480500F07F004B
:102F100001F015FD404240B208BD00BF0010004066
:102F200013B5084B01901C680146204601F08AFB4E
:102F3000019928B1204602B0BDE8104002F08DBDD5
:102F400002B010BD280B002007B5019001F02EFC47
:102F5000019802F07EFD03B05DF804EB01F0B0BB18
:102F600008B50B48002103F0B9F980B9094A0A49AC
:102F7000D2F8003243F48073C2F80032074BC3F832
:102F80005015C3F854254FF48072C3F8042508BDCA
:102F90007C790000009000403C71014000F001404D
:102FA00008B5084BD3F8503513F0FF0F07D1FFF7E2
:102FB000A7FE054B1868003818BF012008BD012086
:102FC000FCE700BF001000403C71014010B5134CFD
:102FD0004023C4F808358023C4F80835FFF76CFF98
:102FE000D4F8003823F08003C4F8003800220C4BDA
:102FF000C4F82C291B7883B10A4B0A21C3F80813A3
:103000000949C3F8002201200860BDE81040C3F858
:1030100044264FF4AE70FFF752BE10BD00F00140E1
:103020001D0B00200010004010100040094A1368DA
:10303000002BFCD0084AD2F8003223F48073C2F887
:103040000032064B01221A60054B4FF48072C3F820
:1030500008257047409100400090004010900040CB
:1030600000F0014038B51C4C1C484023C4F808351A
:103070008023C4F808354FF48073C4F80835002164
:1030800003F066F9164A174801251560D4F8003890
:10309000002123F08003C4F80038C4F82C1915600F
:1030A000D0F8003223F48073C0F800320E4B1B7846
:1030B00083B10E4B4FF45052C3F80823C3F80012EB
:1030C000082203F0E7F90A4B1D6018B1BDE838404B
:1030D000FFF7ACBF38BD00BF00F001407C790000B5
:1030E00010900040009000401D0B00200010004098
:1030F0001010004010B5154C4023C4F8083580234B
:10310000C4F808350120FFF7A5FED4F8003823F0F5
:103110008003C4F8003800210D4BC4F82C191B782B
:103120009BB10C4B0C4AC3F808230C48C3F800129F
:10313000082203F0AFF90A4A0123136042F8203C49
:1031400018B1BDE81040FFF771BF10BD00F001409D
:103150001D0B0020001000400200040800900040F9
:103160003010004038B5164C4023C4F80835802391
:10317000C4F80835FFF7A0FED4F8003823F0800328
:10318000C4F8003800250F4BC4F82C591B78ABB19C
:1031900008220D48294603F07DF90C4B4FF40042FC
:1031A000C3F808230A4AC3F800520123136042F807
:1031B000183C18B1BDE83840FFF738BF38BD00BF34
:1031C00000F001401D0B0020009000400010004066
:1031D0002810004038B5164C4023C4F80835802329
:1031E000C4F80835FFF768FED4F8003823F08003F0
:1031F000C4F8003800250F4BC4F82C591B78ABB12C
:1032000008220D48294603F045F90C4B4FF4C02223
:10321000C3F808230A4AC3F800520123136042F896
:10322000203C18B1BDE83840FFF700BF38BD00BFF3
:1032300000F001401D0B00200090004000100040F5
:1032400030100040044B002282B01A601B680193CA
:10325000019B02B0704700BF3C710140424B1B789C
:103260002DE9F04107460D46164613B90020BDE88A
:10327000F081047801F0A4FD631C5B01002860D19B
:1032800003F1CE0015B100F1A80398B202F034FAB0
:1032900080460028EAD001F0D3FA344B344AC3F810
:1032A0000C05002D08BF4FF4A012C3F804754FF4AD
:1032B000B670C3F80022FFF702FD002D44D04FF492
:1032C000A470FFF7FCFC2B4A4FF48270FFF7F7FC69
:1032D000294B19786FF3C3011970244B42F0020295
:1032E000C3F804239DB32549254802F0F7FF0021C8
:1032F0000446224802F0D2FF18B1B4FA84F0400923
:1033000080B1204A2049D2F8003243F48073C2F8D9
:1033100000321E4BC3F85015C3F854254FF4807289
:10332000C3F80425FFF78EFF002D14BF04200020F2
:103330000121FFF7EDFC8EB9154B01221A604046C2
:1033400095E703F22E409DE74FF00062BCE711487D
:10335000294602F0A3FFB0FA80F0D0E7FFF720FE85
:103360000028E9D083E700BF1D0B002000100040BB
:1033700000381400000004081C0B00209C79000099
:103380007C790000009000403C71014000F0014059
:10339000101000408C790000154B1B7810B50446C6
:1033A00003B3AE2002F0A8F9E0B1124A4FF4205363
:1033B000C2F800324FF4A470FFF781FC4FF4A27002
:1033C000FFF77DFC4FF4C023C2F80433FFF7C8FDBC
:1033D000FFF738FF01210420FFF79AFC1CB9064BC8
:1033E00001221A6010BDFFF7DBFD0028F7D0F9E7D6
:1033F0001D0B002000100040101000404C4B1B78AB
:1034000070B50646002B00F086804A4A137823F0F8
:103410001703137001F014FA474AC2F80C05FFF7BE
:103420005BFC0546002877D0FFF760FC434BC2F8F1
:103430000405C2F800321823C2F860354FF49A70C0
:10344000FFF73DFC4FF49470FFF739FC4FF4987090
:10345000FFF735FC3A4C3B484FF45053C2F8043365
:10346000D4F8003243F48073C4F80032002102F033
:1034700035FF002852D1D4F840358133C4F84435A3
:10348000FFF7E0FE304B3148314AC3F84825C3F816
:103490004C0500F5F030C3F82C09C3F85025C3F8EB
:1034A0005445D3F8002842F08002C3F80028294A86
:1034B000C3F8402502F5AF3202F59672C3F84425F1
:1034C0008022C3F804254FF48072C3F80425A0F5C8
:1034D000EF304022C3F80425D43801F0A7FA0EBB20
:1034E0001D4B01221A60B5B901F054FA1B4B18604C
:1034F000FFF7F2FB78B1FFF7F9FB0F4B0F4AC3F868
:103500000405C3F80022D3F85035DBB2022B02BF0A
:10351000134B01221A6070BD52238AE70123C4F8BD
:103520004035AAE7FFF73CFD0028D9D0DBE700BF14
:103530001D0B00201C0B0020001000405200080052
:10354000009000407C79000000F001400410004031
:103550003C7101401011004010100040240B00206D
:103560000810004010B5044601F06AF9144B002120
:10357000C3F80C05134802F091FE80B9124A1349B2
:10358000D2F8003243F48073C2F80032104BC3F813
:103590005015C3F854254FF48072C3F80425FFF783
:1035A00051FE00210846FFF7B3FB1CB9094B01226D
:1035B0001A6010BDFFF7F4FC0028F7D0F9E700BF50
:1035C000001000408C790000009000403C710140E8
:1035D00000F0014010100040134B1B7810B504465A
:1035E000DBB1124B1868FFF7CDFBB0B1104A4FF4B6
:1035F0000041C2F800124FF49E70FFF760FBC2F862
:103600000413FFF7ADFCFFF71DFE01210420FFF7B7
:103610007FFB1CB9074B01221A6010BDFFF7C0FCED
:103620000028F7D0F9E700BF1D0B0020180B002081
:10363000001000401010004008B5064B1B7833B155
:1036400002F074F83B2894BF0020012008BD01203F
:10365000FCE700BF1D0B002010B501F0A5F80446E3
:1036600028B1FFF7E9FF044608B901F067F82046E2
:1036700010BD00001549402310B5C1F8083518B138
:10368000134B5222C3F80022124B134A01241C6030
:103690008023C1F80435137823F0070313704FF427
:1036A0009470FFF70CFB0A4B1822C3F86025FFF754
:1036B000C9FD40230948C1F8043501F0B7F9FFF707
:1036C0006FFC08B9064B1C6010BD00BF00F0014044
:1036D00000100040109000401C0B002030110040F2
:1036E0001010004013B50446FFF70CFC237801903E
:1036F000234413F8010C01F029F902B29200FF2AC9
:1037000028BFFF220199D2B2204602B0BDE8104086
:1037100002F09DB9F8B505460F46164600F07CFF4D
:10372000044678B15E4B1B78092B0BD8DFE803F019
:10373000050C0F225B5B656A747E022F02D00420A9
:1037400002F014F82046F8BDFFF710FBFAE7554BDE
:103750001B785B070BD5002D00F0A080FFF782FCE3
:10376000002EEFD0062002F074F93446EAE7FFF7A6
:1037700079FCE7E7002D00F091804B4D4B4840234A
:10378000C5F808358023C5F808354FF48073C5F8AF
:103790000835002102F0C2FD454801230360D5F839
:1037A0000028002122F08002C5F80028C5F82C1955
:1037B0000360D0F8F02122F48072C0F8F0213D4A75
:1037C000127832B13C4A3D48C2F80803C2F80012F0
:1037D0001361002EB6D03A4B1868002380F8803071
:1037E000FFF780FFC1E7002D58D0FFF783FC002EC4
:1037F000A8D00620FFF794FBA4E7002D4ED0FFF7DA
:10380000E5FBF4E7002D49D0FFF7ACFC002E99D082
:10381000012002F026F9A8E7002D3FD0FFF7DAFCDF
:10382000002E8FD0012002F020F99EE71E4E1F4887
:103830001F4F4023C6F808358023C6F808350021FD
:1038400002F06CFD01254FF480733D602846C6F8F8
:10385000083502F097FD174B1B78002B3FF472AF31
:1038600018480822002102F015FE174B1D600028A1
:103870003FF468AF154A1368002BFCD0114AD2F808
:10388000003223F48073C2F8003201233B60064B00
:103890004FF48072C3F80825044653E72C4651E7DD
:1038A0001E0B00201C0B002000F001408C79000052
:1038B000109000401D0B0020001000400200000886
:1038C000240B002000900040101000404091004068
:1038D00007B5019000F06AFF0198FFF703FF03B0FE
:1038E0005DF804EB00F0ECBE2DE9FF410446002832
:1038F00000F0AD8001F01AFF3B2840F28C80804E32
:10390000337803F0FF05002B40F085807D4C0127C4
:103910000F232946C4F8FC5F0D22C4F8FC7F6846DB
:10392000C4F8103503F0DBFB08238DF800307F234B
:103930009DF803208DF808309DF802309DF80100B5
:103940008DF80670002A4FEA034314BF4FF480112C
:1039500000219DF8042043EA00230B4343EA8253ED
:103960009DF8072043EA427343F0C0634FF002081A
:1039700043F008038DF80580C4F814359DF80A302B
:103980009DF809201B0443EA02229DF80B30002B0E
:103990009DF80C3014BF4FF080710021002B14BF34
:1039A0004FF00073002313430B4343F07F03C4F82D
:1039B000183540F20223C4F85076C4F83435524B1F
:1039C000C4F83835FFF700FA504BC4F84456C4F831
:1039D000483600F02FFFFFF713FA4D4B83F80153E1
:1039E000C3F88081377001F00BF84A49284602F08D
:1039F00055FC4849284602F071FC474B1B78023BB6
:103A0000072B08D8DFE803F004070A110714181C75
:103A10000020FFF7F3FC04B0BDE8F0810022012193
:103A20003E4B1868FFF71AFCF5E700221146F7E74E
:103A30000020FFF7D1FDEEE70020FFF7ADFCEAE73D
:103A40003378002BE7D00020FFF78CFDE3E72C4B09
:103A50001A78002A35D0187001F050FE88B12C4B2E
:103A60000222C3F88020C3F8802183F80143BFF30A
:103A70004F8FBFF36F8F234B0122C3F8FC4FC3F866
:103A8000FC2F2449002002F049FC2249002002F0CA
:103A90005FFC032002F076FC00F0C0FF0022022150
:103AA0000120FFF737FE1C4B1A78013A052A08D887
:103AB000DFE802F0030A121C1C1C00221A70FFF738
:103AC00019FA01F017FEA6E7154B1B785B07F8D52E
:103AD0000520FFF739FAF4E702221A70114B186833
:103AE000002380F88030FFF7F3FEEAE702221A7025
:103AF00000F05CFE0420FFF713FA00F0E1FDE0E7C0
:103B00001D0B00200010004021100100000700FFE5
:103B100000E100E0AC7900001E0B0020280B002023
:103B20001C0B0020240B00200D4A002313700D4AAB
:103B300013700D4BD3F8042522F00302C3F80425BB
:103B4000D3F8082542F00302C3F80825D3F810255E
:103B500022F00F0242F00402C3F8102501F0F8BA77
:103B60001E0B00201D0B002000900040F8B50746FA
:103B700000F01AFE064630B1184D2B7823B93446B2
:103B800000F0DCFD2046F8BD2B78012BF7D0012298
:103B900011463846FFF7BEFD04460028F0D0012349
:103BA0002B700F4B1B7803F0FF071BB92F70FFF72B
:103BB000A1F9E5E74FF48870FFF781F8094B10226F
:103BC000C3F80423D3F8501511F0FF01D7D1FFF744
:103BD000CDF83C462970FFF78DF9D1E71E0B002088
:103BE0001D0B0020001000402DE9F84307468846D1
:103BF0001546994600F0D8FD044600B3124E3378BE
:103C0000022B06D03378032B03D0FFF715FD40B904
:103C100000240DB12046A84700F090FD2046BDE8E5
:103C2000F8834A4641463846FFF774FD04460028AB
:103C3000EED0022301203370FFF7E0FBE9E7002D0F
:103C4000ECD0A847EAE700BF1E0B00202DE9F743A0
:103C50000B9D01919DF82890064690461F46FFF760
:103C6000FBFC0199044628B301223046FFF752FDC0
:103C7000044648B900240DB12046A84700F05EFD77
:103C8000204603B0BDE8F0830C4E022333700C4B8A
:103C9000012239464046C3F80080FFF7DFFAB9F148
:103CA000000F01D00028E5D0002F14BF0423052306
:103CB0003370E0E7002DE3D0A847E1E71E0B0020BA
:103CC000280B002010B50446FFF7C6FC012284F83B
:103CD000802058B1164B1B7833B1164B1B78022B42
:103CE000D9B205D0062915D000F028FD012010BD5D
:103CF0001149D1F85035DBB2022BF5D10F4B1C60C6
:103D0000FEF7F4FF0E4BC1F80405C1F800320D4B6D
:103D10001A60E9E70849D1F85035DBB2022BE3D14C
:103D2000064B1C60FEF7E2FF074BC1F80405ECE709
:103D30001D0B00201E0B002000100040240B002053
:103D40005200080008100040120008002DE9F04F52
:103D50008FB000F0B3FCBB4BD3F804339F0711D5F1
:103D6000B94B1B6873B14FF48270FEF7A8FFB74BD5
:103D70001A78052AD3B200F2E580032B00F2E8801E
:103D800000F0F580DFF8BC92D9F804335E0537D532
:103D9000AF4B1B68002B33D04FF49470FEF78FFFAE
:103DA000AA4B1B78022B2BD1D9F86035C3F3C70877
:103DB000A84B8DF820801B6813BBA74C237813F009
:103DC000010600F0D980012623789D0718D4BEB1E2
:103DD000A24E3068057800F0F3FF6B1C5B010028F1
:103DE00040F0F98003F1A00001F086FC002800F00B
:103DF000F5802378306843F00203237000F026FC3E
:103E0000904BD3F80433980411D5924B1B6873B1CF
:103E10004FF49A70FEF753FF8C4B1B78022BDCB2E9
:103E200005D10020FFF726FC2046FFF78DF8854BD3
:103E3000D3F80433D90440F13981894B1B68002B36
:103E400000F03481814E4FF49870FEF738FF3378DC
:103E5000022B40F02B81804D804C2B78276843F05B
:103E60001003DA072B7040F1BF80206800F0A8FF34
:103E7000002800F0C28000F0CDFC002800F0BD80DA
:103E8000206801F06CF9774B1860002800F0B580CD
:103E90006C4DDFF8F081C5F804054FF4A013C5F8A8
:103EA00000324FF4AA70FEF70AFF6F4B6F4AC3F857
:103EB00058254FF40072C3F85C55C3F80425D8F8B0
:103EC0004495CDF8208000210523CDE90A1108A8EA
:103ED0008DF8283009F12803099302F0DFF9644BCB
:103EE00001221A60D8F84C25D8F84035914505D9FB
:103EF000994540F2C9809A4200F2C680FEF700FF61
:103F0000D5F85035DBB2092B00F0BE80594B1B6849
:103F1000002B40F0B980226882F88030524A4FF47A
:103F20000071C2F80815C2F85835C2F85C35C2F8FD
:103F30003439FFF797F80120FFF760FA3846FFF7AA
:103F4000C7FCB3E0062B7FF41DAF00F081FB19E73F
:103F5000494B1C68204600F077FB10B12046FEF765
:103F600095FC3D4A137843F0080313700AE73D4B74
:103F70001868FEF78DFE05E7384F43F004033868F4
:103F8000237008A900F01AFE054660B99DF820309C
:103F9000984503D0DB00C9F8603514E7237843F077
:103FA000010323700FE709280FD1FFF75BF8012009
:103FB000FFF724FA3B685B7803F00703022B3FF41A
:103FC00003AF2846FEF7C0FFFEE600F01BFC00280A
:103FD0007FF4F9AEE9E703F5307005E7FFF742F843
:103FE000052001F036FD0BE700F00CFC002800F086
:103FF00009812B78DB073FF538AF0120FFF73AFB4B
:104000007B7803F00703022B00F0E980236800228D
:1040100083F8802000F0BEFC2060FEF75DFE0028E3
:104020008CD0FEF763FE074B144AC3F80405C3F8AF
:104030000022D3F85035DBB2022B02BF104B012215
:104040001A607BE700100040041100401E0B0020A6
:1040500028110040341100401C0B0020240B0020CC
:1040600030110040200B002000F00140449100403E
:104070004C90004054110040280B002052000800D2
:104080000810004000900040634A032333704FF44F
:104090005053C2F808334FF4B670FEF710FE4FF4D9
:1040A0008270FEF70CFE5D4BC2F804335A4CD4F814
:1040B00004331F0140F13C81594B1B68002B00F079
:1040C0003781DFF888914FF4B670FEF7F8FD99F864
:1040D0000020032AD3B24F4600F0BA80043B012BE4
:1040E00000F226814F4B1B781E0740F121814E4E76
:1040F000306800F065FEB0460546002800F0638198
:10410000FEF7EAFD494A4A4B051E08BF12234FF04D
:104110004001C2F80815C4F8003203D0FEF7E6FDEE
:10412000C4F804054FF48670FEF7C9FD414BC4F88E
:1041300008334FF48270FEF7C2FD0A23C4F804333B
:104140000020FEF787FEFEF70BFF38493A4BC1F817
:104150004835A3F5B033A3F59C73C1F84C3503F58E
:10416000F033C1F82C39FFF76DF88023C1F804351E
:104170004023C1F8043506233B70FEF711FF10B948
:104180002E4B01221A60B5B900F004FC2C4B1860CC
:10419000FEF7A2FD78B1FEF7A9FD1F4B244AC3F834
:1041A0000405C3F80022D3F85035DBB2022B02BF5E
:1041B000244B01221A60D8F80020937803F03003D2
:1041C000202B00F0B5804FF4AE70FEF778FDD37869
:1041D000114A1B0643F40073C2F84436A8E000F00D
:1041E00011FB00287FF412AF0B4B174AC3F80022D3
:1041F000D3F85035DBB2022B7FF458AF114B0122BC
:104200001A6053E7FEF72EFF0120FFF7F7F80420AE
:10421000FEF79AFE4AE700BF0010004002000008C7
:104220006C1100401C0B0020280B002000F0014006
:1042300012000800020004083C7101401010004008
:10424000240B002008100040520008001E0B002024
:10425000AE4DAF4EDFF8FCB2D6F80080AD484FF05F
:10426000400A00214FF00109C5F808A502F056F8F0
:104270000021A948CBF8009002F030F85223C4F88E
:1042800000321823C4F86035A44BC4F808334FF447
:104290009A70FEF714FD4FF49470FEF710FD4FF482
:1042A0009870FEF70CFD4FF45053C4F804334FF4EC
:1042B0000073CBF80090C5F808350023C5F85835D1
:1042C000C5F85C35C5F834398023C5F80435FEF7E8
:1042D000B9FF9348C5F804A500F0A8FBFEF760FEFF
:1042E00010B9904BC3F800903368002283F8802007
:1042F00000F050FB3060FEF7EFFC78B1FEF7F6FC03
:10430000894B8A4AC3F80405C3F80022D3F8503514
:10431000DBB2022B02BF864B01221A60854A0223C0
:104320003B70137823F0070313704046FFF7D0FA71
:104330007D4AD2F804331D0740F18A807E4B1B680A
:10434000002B00F085807D4E4FF48670FEF7B7FCA1
:104350003378062B7CD17A4B1B681BB1D2F8003422
:10436000DC0748D4774B1868837803F03003202BA0
:1043700026D1674B1D68AB7803F03003202B1FD18B
:104380006B7803F00703022B1AD1674BD3F8004474
:1043900014F0010415D002A900F0B1FD08A92846C7
:1043A00000F0ADFD60B1059850B1099941B19DF89B
:1043B0001D309DF834209A4202D102F02EFED0B179
:1043C000002425461DE0FEF795FE0223012089F812
:1043D0000030FFF713F83068009000F0E7F900981C
:1043E00000F02EF900982B462A46294601F033FBAF
:1043F00000F066F99CE7464B1D68002385F8803085
:104400000124FEF7E3FD022701203770FEF7F6FFD7
:10441000002C74D0FEF776FD2B7801902B4413F816
:10442000010C00F093FA474B04B218680090BC40AE
:1044300000F0BCF9009800F003F9FF2C28BFFF241E
:10444000019A0098E3B2294601F005FB00F038F923
:10445000354BD3F80433D80610D53B4B1B686BB1F2
:104460004FF48870FEF72BFC34490B78012B05D1F3
:10447000FEF77CFC00230B70FEF73CFD2A4BD3F8C3
:104480000433990318D5314B1B68ABB12B4C4FF457
:10449000A270FEF714FC2378082B0DD1FEF79AFECC
:1044A000022301202370FEF7A9FF00F07FF901200D
:1044B00001F0D9FA00F004F91B4BD3F804335A0386
:1044C0004CD5234B1B68002B48D01C4C4FF4A470D8
:1044D000FEF7F5FB2278052AD3B23DD8032B3DD950
:1044E000FEF708FE022301202370FEF787FF00F08D
:1044F0005DF90120FEF714FD00F0E2F82EE000F077
:1045000055F93846FEF70CFDA0E700BF00F001406A
:10451000240B00208C7900007C7900000200000848
:104520003011004010100040001000405200080000
:10453000081000401C0B00200C1100401E0B002036
:104540005C110040280B0020101100404411004075
:104550004811004010900040082B26D0284AD2F87D
:1045600004331B041CD5274B1B68CBB1264D4FF4DD
:104570009E70FEF7A4FB2B78072B11D1234CD2F8A9
:1045800068362278DBB2934238BF13462370204B43
:104590001868D0B1FEF7F6FBA0B11E4B01221A60DD
:1045A00000F0CCF80FB0BDE8F08FFEF713FE022349
:1045B00001202370FEF722FF00F0F8F8002001F040
:1045C00052FA99E7FEF778FCEAE700F033F9FEF7D4
:1045D00017FCFEF7C7FD022301202B70FEF70EFF2C
:1045E000207800F0BAF900B2840000F0DFF8FF2C68
:1045F00028BFFF24E0B201F032FA00F061F8CFE703
:10460000001000403C1100401E0B0020140B002045
:10461000180B002024100040F8B5084E05460F4640
:10462000002456F8043B33B139462846984718B160
:104630000134032CF5D10120F8BD00BFBC79000086
:1046400000F050BF00F052BF00F010BF00F0C4BE39
:1046500000F04ABF08B5104AD2E84F3F0133DBB241
:10466000C2E8413F0029F7D101F0A4F801F07CFB3A
:104670000121084601F050F818B1084B0222C3F896
:104680008020BFF34F8FBFF36F8F054A137801333C
:10469000DBB21370012008BD2E0B002000E100E00A
:1046A0002C0B0020034B00221A70034BFF221A70C0
:1046B000704700BF2E0B00202D0B0020FFF7CABF54
:1046C000014BFF221A7070472D0B00200D494B68DB
:1046D000C3F3080393B1103BDAB25BB2002BBBBF4C
:1046E00002F00F03043B03F160435B18AABF03F51C
:1046F0006143187E93F80003400970474FF0FF3084
:10470000704700BF00ED00E008B50A4B1B781BB9ED
:10471000BDE80840FFF79EBFFFF7D8FF064B1B78A8
:10472000B0F1FF3F08BF7F205BB240B29842EFD0AC
:10473000002008BD2E0B00202D0B00202DE9F84392
:10474000164D174F2C78DFF85C90E4B2B8463E78EF
:10475000012CF6B20BD101F02FF82146204600F0D3
:10476000DBFF10B10223C9F8003001F00DFBD5E8E2
:104770004F3F013BDBB2C5E8423F002AF7D1012C95
:1047800009D101F029F818B998F800309E4202D0FA
:10479000FFF7BAFFDBE7BDE8F88300BF2E0B002070
:1047A0002C0B002000E100E0FFF7AEBF08B5FFF7DB
:1047B0008DFF044BB0F1FF3F08BF7F2040B218705F
:1047C00008BD00BF2D0B00207047000010B50C4C39
:1047D0005A230222FF21601C637402F080FCFE2336
:1047E000E3700822FF230021601D237102F077FC93
:1047F000002363731423A373E3730223237410BD94
:104800002F0B0020024B587C00F00100704700BFC6
:104810002F0B0020024B587CC0F34000704700BFB4
:104820002F0B0020024B587CC0F38000704700BF64
:104830002F0B0020014B587CC00870472F0B002025
:10484000F0B5144B587C93F9001085B0C00800F007
:104850008BFD114B6A46044603F10807154618689C
:104860005968164603C60833BB423246F7D118686A
:104870009B883060072CB38009DC2B46002213F89C
:10488000010B41B28C4203DD01320E2AF7D1082020
:1048900005B0F0BD2F0B0020C8790000014B187047
:1048A000704700BF2F0B002000487047300B0020DE
:1048B00001460222014802F0E9BB00BF300B002094
:1048C00000487047340B002001460822014802F0DE
:1048D000DDBB00BF340B002000487047320B0020C6
:1048E00001460222014802F0D1BB00BF320B00207A
:1048F0000149042202F0CABB3C0B002008B501F0BC
:104900008CFB10F11D0F0FDB10F1090F0EDB0A28D5
:104910000EDD1E280EDD32280EDD4728B4BF6FF0F5
:1049200001006FF0020008BD0320FCE70220FAE757
:104930000120F8E70020F6E74FF0FF30F3E710B56D
:104940000446FFF7DBFF2044C0B210BD10B504469B
:10495000FFF7D4FF201AC0B210BD10B50446FFF710
:10496000CDFF201AC0B210BD10B50446FFF7C6FF38
:10497000201AC0B210BD0000054A002301210133F6
:10498000102B82F8801002F18102F8D1704700BF2D
:10499000410B0020074A0023114692F8800018B10D
:1049A00003EBC313C81870470133102B02F18102C7
:1049B000F3D17047410B00200E4A002310B513605D
:1049C0000D4A137001F02BFB01F0ACFA044601F024
:1049D00047FB0A4B4FF40052C3F87845C3F87C05F7
:1049E000C3F80425D3F8042842F48042C3F804280D
:1049F00010BD00BF541300205813002000F00140E8
:104A000008B5054B00221A7001F00AFB01F02CFBDF
:104A1000BDE8084001F02CBA6413002008B501F08D
:104A200019FBBDE8084001F06FBA000010B504465C
:104A300001F03CFB054B064AC3F88045C3F88405EA
:104A4000C3F8482901229A6010BD00BF00F0014060
:104A50000CF001402DE9F84F244B1B78834603F0FE
:104A6000FF0593B301F026FB214B5A68841A214AB3
:104A700010789A4618B3204B1968CB1711F58008A7
:104A8000A4FB016743F1000911F5800FACBF0021C1
:104A9000012104FB0377B1EBD77F4FEAD97117D01F
:104AA00018EB010249F10003500840EAC3705910A5
:104AB000301A42464B4667EB010102F024FADAF85D
:104AC00000301C44201ACBF800002846BDE8F88FBF
:104AD00018EB010249F10003500840EAC370591075
:104AE000801942464B4647EB0101E6E7641300207C
:104AF0005C1300205813002054130020F7B501A8C0
:104B000001F0C4FA00284CD0284E294C294D01F060
:104B10000DFA3378009013B32268019FC2F500119B
:104B20003A4467680144D21B101A4FEAD1524FEA47
:104B300091534BBF801A801890FBF3F0B0FBF3F059
:104B40002B781D495BB30B68C3EBC3031B1821D53E
:104B50001A1F00D5DA1CD2100A6001232B70002323
:104B60003370BFF35F8F02AB13E9030084E80300E7
:104B7000BFF35F8F0123337001F076FA2B78206842
:104B8000002B14BF4FF080714FF4800101F0A6F9A3
:104B900003B0F0BD1A1D48BF03F10B02DBE708604C
:104BA000DBE701F061FA01F063F9F1E7641300203B
:104BB0005C1300205813002054130020F0B50C782B
:104BC0004278032C89B006460D4602F0070736D11D
:104BD0000378053B7A2B00F282808378052F03F05F
:104BE00030010BD020D812F0040201D0012423E0C0
:104BF0003029FBD0102903D0202917D00029F5D166
:104C000003F00C03082B0ED00C2B0BD0002BEDD196
:104C1000FFF708FE00B97FB996F90230002BE5DAFC
:104C2000062300E00E232B70002405E0144600F05C
:104C3000E8F8FF28DAD02870204609B0F0BD02A9B4
:104C400000F05DF90028D1D0029CECB1FFF72CFEFA
:104C500002220146204602F0E0F9A8B1214B0222CF
:104C60001D88ADF8045001A9204602F0D6F958B1CC
:104C700047B9FFF719FE02226946ADF8005002F06D
:104C8000CCF908B10324D7E79DF81C40022C0AD0C8
:104C9000082C1ED0002CA9D1FFF7C4FD0028C3D1D9
:104CA000002FC1D0EEE7039DFFF716FE2246014616
:104CB000284602F0B2F90028B6D00A4B1B88ADF89E
:104CC0000430224601A9284602F0A7F90028D9D1CC
:104CD000AAE7039DFFF7F4FD22460146F3E7092406
:104CE000AAE700BFD6790000837803F030021F2ABC
:104CF00005D913F0010F0CBF0420032070470420D6
:104D00007047807800F0C000802806D0C02806D008
:104D1000002814BFFF2000207047022070470820A1
:104D2000704700008378024A03F00C03D05C7047A0
:104D3000D879000082784378900602F00C0103D401
:104D4000081E18BF012070470C29C3F3801002F021
:104D5000C00204D1C02A08D180F001007047002AA7
:104D6000EED10029F8D1C0B27047002AE8D1F3E7AC
:104D7000837842789906C2F3801203F0C00003D40E
:104D800048B182F00100704703F00C030C2BF7D1FF
:104D9000C028F5D100207047807800F0C000A0F155
:104DA000C003584258417047807800F0C000A0F11D
:104DB0008003584258417047807800F001007047E6
:104DC0004078C0F34010704710B50446FFF7B2FFBB
:104DD00020B12046BDE81040FFF786BF10BD10B5DA
:104DE000837813F00C03044609D0FFF7EDFF20B9D8
:104DF0002046BDE81040FFF777BF0230C3B2184627
:104E000010BD38B50146FFF76FFF05460846FFF7AE
:104E100089FFFF28044607D00846FFF78BFF08B13B
:104E20000235EDB22C44E4B2204638BD38B5054613
:104E3000FFF7CAFF04462846FFF79AFFA8B12846A5
:104E4000FFF7CDFF01462846FFF76CFF21B1FF2891
:104E500001D00844C0B238BD14B1A31CD8B2FAE7DF
:104E60002846BDE83840FFF73FBF2846FFF762FFFE
:104E7000002814BF20460020EDE738B5847814F0F0
:104E8000C00405460AD0FFF7D1FF04462846FFF7C5
:104E90006FFF28B1FF2C01D00234E4B2204638BDA8
:104EA0002846FFF79CFF01462846FFF73BFF0446D4
:104EB00021B1FF28F2D00818C4B2EFE72846FFF767
:104EC00083FF08B10230F7E72846BDE83840FFF716
:104ED0000BBF38B504460D46FFF7CFFF431EDBB2CC
:104EE000FD2B09D8A37803F0C003A3F1C0025342FD
:104EF000534120442B7038BD00231846FAE72DE9B2
:104F0000F04106460D46FFF7EFFE04463046FFF738
:104F100011FF07463046FFF72BFF8046A7B1311936
:104F20000234E4B22960B37813F00C030ED03319C5
:104F30006B603046FFF7F6FE0444FF282875E4B2A4
:104F400006D10020BDE8F0813946EBE76B602B7598
:104F5000B8F1000F1CD033190234AB60E4B2B3785F
:104F600013F0C00319D03319EB603046FFF7C9FEC8
:104F70000444FF286875E4B2E3D0AC757378C3F3DA
:104F8000C0001B074BBFA41928612C610120D9E781
:104F9000002F18BF0F46AF60E1E7EB606B75ECE7E1
:104FA0002DE9F04389461AB1012A07D0002025E0F7
:104FB000234A83BB976E022401322FE0214ACBBBE8
:104FC000D2F818710B2429E0ACEB060506EB650559
:104FD000AF4228D905FB04FE02EB0E0883B152F85C
:104FE0000EE001688E4511D813D3D8F804E041686B
:104FF00071450BD30DD8C9F800500120BDE8F083EE
:10500000B0F8008032F80EE0F045F2E705F1FF3C21
:1050100007E06E1C05E0D76E082415320025BC465B
:105020002E46B445D0DA6B1CB34208BF3546C9F8EA
:105030000050BBE7D2F81C7111246E32EEE700BFBE
:10504000881400206813002010B5094C702200213C
:10505000204602F044F84FF490720648002102F016
:105060003EF801232370044B00221A7010BD00BFCC
:105070008814002068130020F814002030B51F4A5F
:105080001578012D89B0044613D0022D14D06DB9C6
:1050900001A9FFF71EFF1A4B1B786BB130B19DF8C9
:1050A00004302A4602A9FFF77BFF0346184609B0E1
:1050B00030BD134B1B780BB90123F7E702A94578E4
:1050C000FFF71DFF0028F7D005F00705032D12D1CB
:1050D0009DF81E30E35C042B0DD19DF81D30022B92
:1050E000EAD100231A46059801A9FFF759FF80F07D
:1050F0000100C3B2DAE70023D8E700BFF8140020AC
:105100008814002073B50E461546044680B10B4640
:10511000012201A9FFF744FFA0B101980B4C56B141
:1051200000EB00102318763093F87E302B70044487
:10513000204602B070BD0B235843231802309B7ADF
:105140002B70F4E728700446F2E700BF68130020D4
:1051500008B500F0E5F8BDE8084000F010B8837825
:1051600003F03003102B024602D0202B03D023B9CA
:10517000104600F0E9B800F003B80020704770470F
:10518000F0B58FB002A90546FFF7B9FE002876D02A
:105190009DF81D10614CA1F10800414241410DF103
:1051A00007020598FFF7AEFF0322064600212046BE
:1051B00001F095FF637843F0020363706A7802F0B0
:1051C0000802134328466370FFF758FF18B163784D
:1051D00043F0100363706B785B0648BF6378284622
:1051E00044BF43F040036370FFF7E6FD18B1A378B6
:1051F00043F00103A3701EB1A37843F00203A37030
:105200002846FFF7C9FD00283BD0A37843F00C03E4
:10521000A370A378414843F0200308A9A370FFF7C7
:105220006EFE9DF83630284601332370FFF7C4FD2B
:1052300008B9EB78E370089B53B1049921B902993E
:1052400011B9FFF731FB01460898022201F01EFF59
:10525000059921B19DF81D20099801F017FF0C9BBD
:10526000C3B99DF83650601946B19DF807503146D4
:105270002A4601F00BFF22781544257027480FB00D
:10528000F0BD2846FFF790FD0028C2D0A37843F078
:105290000803BDE7069A12781A7021784B1C237018
:1052A0000C9B1A7812F0200204BF05312170069978
:1052B000FAB101315D1C1B7803F01803102B1BD0D1
:1052C000182B1BD0082B1BD101273A46284601F08A
:1052D000DDFE23783B4423700C9B1B7803F007030F
:1052E000013B062B11D8DFE803F00D1215100D124B
:1052F000150005315D1DDEE70527E6E70927E4E730
:105300000027E9E7237804332370E819ACE7237812
:105310000833F9E723781033F6E700BFF9140020CB
:1053200007B5074B186800909B880648ADF8043015
:105330000622694601F0AAFE03B05DF804FB00BF37
:10534000E57900007915002010B5064CC378E370AC
:10535000FFF794FE002814BF122302236370204637
:1053600010BD00BF791500200846704713B50C4AE0
:10537000531CD3E84F3FDBB28DF807309DF8073060
:10538000834204D0BFF32F8F002002B010BD541C05
:10539000C4E8431F002BEBD1BFF35F8F0120F4E77C
:1053A0007F150020042910B5044602D101242046AF
:1053B00010BD084B5B78022BD8B2F7D1002CF6D089
:1053C0000021FFF7D3FF04460028EFD00A2000F0A9
:1053D00040FBECE77F15002038B5084B5B78022BCB
:1053E000044609D100F0BEFA054D23782860204616
:1053F0002B71FFF7E5FC687138BD00BF7F150020F9
:1054000084150020034B00211970BFF35F8F024801
:1054100000F0F0BA8C1500209015002010B50B4C50
:10542000237843B10A4A00230321012000F026FB20
:1054300010B10023237010BD06484368BDE810403A
:1054400003F5FA730121436000F098BA8C1500202F
:10545000595400009015002020B1034B0521186815
:1054600000F0FBBA704700BFA415002038B50E4C01
:105470000E4D0F4BA3600023E360286000F072FA2A
:105480002B6820601A780B4B1B6803EB421303F563
:10549000C07301256360084B204629461D7000F04B
:1054A0006DFA284638BD00BF90150020A4150020D5
:1054B0001D5400004C0000208C150020084B1B7868
:1054C00010B503F0FF0433B1032902D028B1FFF770
:1054D00099FF204610BD0124FBE70446F9E700BF11
:1054E0008C150020FFF78EBFFFF78CBF08B5FFF7C4
:1054F00089FF012008BD00002DE9F04F394EDFF88B
:10550000E89085B00123D6E84F4F14F0FF0409D08E
:10551000BFF32F8F344A13780133DBB2137005B019
:10552000BDE8F08FC6E8453F002DECD1BFF35F8F9B
:105530002E4F99F80030DFF8C0A05FFA83FB3B786C
:10554000019300F00FFA8046DAF80410DAF8083018
:105550000391029300F008FA9AF800200399A242FE
:105560000FD9C0F17F4000F57F00029B00F57E401F
:10557000203003441A46404600F0F8F908B99AF87A
:105580000040012D0AF1200A22D1194B1878019B05
:10559000844238BF0446A34210D03C70D4B9154DA4
:1055A00000F066FA2C7000F078FA6C70204600F07B
:1055B00074FF3B7803B90CB90E4B9C70BFF35F8F3F
:1055C000084A0023137099F800305B459AD1A6E78A
:1055D0000125B9E700F04EFA00F086FD00F05BFA15
:1055E000E4E700BFEF150020F0150020F1150020C2
:1055F000AB150020A8150020AC150020F8B51E4DF5
:105600001E4E2F460123D5E84F2F12F0FF0F07D073
:10561000BFF32F8F194A13780133DBB21370F8BD33
:10562000C5E8423F002AEED1BFF35F8F144B3478B8
:105630001A78032A98BF18785A788CBF0420C0B211
:10564000904288BF58789A7888BFC0B2824238BFEB
:1056500098780C4B1A7838BFC0B28242E4B202D0BC
:10566000187000F085F8BFF35F8F00233B7033782C
:10567000A342C7D1D3E700BFED150020EE150020EF
:10568000A8150020EC15002008B500F003FA00F082
:1056900003FF0A4A00231370094A1370094A137062
:1056A000094A1370094A1370094A137082F82030AE
:1056B000084A13705370937008BD00BFED150020A9
:1056C000EF150020EC150020AB150020F11500208F
:1056D000AC150020A815002008B5054B1870BFF3C5
:1056E0005F8FFFF709FFBDE80840FFF787BF00BFE6
:1056F000AB15002000F0D2B900F0D1B9054B1A78F3
:1057000032B95A7822B99878003818BF012070470A
:1057100001207047A8150020034B185C884234BF55
:1057200000200120704700BFA815002000F0B9B983
:10573000034B1B7813B1034B04225A70FFF75EBF73
:10574000F1150020A8150020034B1B7813B1034B63
:1057500004221A70FFF752BFF1150020A81500208F
:10576000014BFF221A707047F2150020FFF7B4BFFB
:1057700013B50446FFF718F80D4B50B11A78FF2AFD
:1057800007D12046FEF7B0F802B0BDE81040FEF7A2
:10579000D5BFD3E84F2FD2B28DF807209DF8072050
:1057A000C3E8424F002AF4D10028EDD102B010BD69
:1057B000F215002070470000064AFF23D2E84F0F81
:1057C000C2E8413F0029F9D1C0B2FF2801D0FEF75D
:1057D0008BB87047F2150020024B1878FF3818BFBD
:1057E00001207047F215002082B00122D0E84F3F1F
:1057F000DBB28DF807309DF8073023B1BFF32F8F50
:10580000002002B07047C0E8432F002BEED1BFF359
:105810005F8F0120F5E70000094A82B0D2E84F3FD0
:10582000DBB28DF807309DF807300133DBB2C2E8F8
:10583000413F0029F2D1BFF35F8F02B0704700BF34
:10584000F41500202DE9F3470F462749DFF89CC0E7
:105850004FF0000E89460A78CDF804E0D2B26346D4
:1058600053E8004F24B184421FD004F11003F7E73E
:10587000A04699F800509542EDD1404517D10269F4
:105880000192DCF8002082422AD1019A002A15BF39
:105890000025012501260026019A43E8002ABAF1D5
:1058A000000FD8D1FFF7B8FF05E08046E1E7BFF36E
:1058B0002F8F00252E4654B108F1100353E8003F06
:1058C00008F1100141E80032002AF5D1012407B1A6
:1058D0003C70002E14BF3046284602B0BDE8F08769
:1058E00000252E46D8E700BFF4150020F81500204B
:1058F0002DE9F0410F4E104FB04635780F483C6807
:10590000EDB2FFF771FF38B164B900F0A3FABFF34D
:105910005F8F0A4B00221A7098F80030AB42ECD12E
:10592000BDE8F0813B6820686168A342EFD100F0D8
:105930003FFAECE7F4150020F8150020F5150020DB
:10594000044A00231360044A1370044A1370044A83
:1059500013707047F8150020F5150020F31500208E
:10596000F415002000F01EBA00F020BA101A084406
:105970000028D4BF0020012070470000F8B504467D
:1059800029B100F013FA6368013B0344636000210E
:105990002046FFF757FF08B1FFF7AAFF134E144D3B
:1059A000B44630782946C0B251E8002F5AB1D4E944
:1059B00000373B441768DB1B5768DB1B002B02DBFF
:1059C00002F11001F0E79CF800308342E9D1226136
:1059D00041E80043002BE4D1FFF71EFF2B68A342F0
:1059E00003D1BDE8F840FFF783BFF8BDF4150020F0
:1059F000F815002008B5FFF725FF18B1BDE80840ED
:105A0000FFF776BF08BD000037B50E48FFF7ECFE84
:105A100098B10D4B186858B10DF10701D0E9024556
:105A2000FFF710FF9DF8073013B10CB12846A047CF
:105A3000BFF35F8F034B00221A70FFF759FF03B0CB
:105A400030BD00BFF3150020F81500207047FDF7AA
:105A500022B9FDF72EB9FCF7B1BEFDF72BB9FDF762
:105A60002AB9FDF729B9FDF728B9FDF727B970471D
:105A700000F04ABB70477047FEF778B8FEF7B4B83D
:105A800010B49DF8044001945DF8044BFEF7DEB8B5
:105A9000FEF718B97047FFF74BBE704770470120FB
:105AA00070474FF0FF30704700F1402000F50030A4
:105AB000002382B0036003680193019B02B070472A
:105AC000224B37B519460120D3E84F2FD2B28DF8BB
:105AD00007209DF8072062B1BFF32F8F1C4B1A6877
